:100000000C942A000C94E9060C9410070C94370702
:100010000C945E070C9485070C94AC070C94D307E2
:100020000C94FA070C9421080C9448080C946F085F
:100030000C9496080C94BD080C94E4080C940B09DD
:100040000C9432090C9459090C9480090C94A7095A
:100050000C94CE0911241FBECFE5D8E0DEBFCDBF82
:1000600010E0A0E6B0E0EAE7F2E502C005900D92EC
:10007000A23EB107D9F715E0A2EEB0E001C01D9293
:10008000A23FB107E1F70E9439120C943B290C946E
:1000900000000E94CE010E94830680E008950E9425
:1000A0008C0682EE90E00E94A2068091E200909180
:1000B000E3008F31910528F483E062E30E94D201CE
:1000C00004C081E062E30E94D20180E0089580E0F4
:1000D00060E00E94ED0288E70E947602089583E0C6
:1000E00060E10E94A40B089580E00E94D30C8093ED
:1000F000E500882319F087E08093E600089583E007
:1001000064E00E94A40B08950E94C90A8091E70050
:10011000833020F48F5F8093E70002C01092E700E5
:100120008091E70090E0880F991FFC01E05AFF4F93
:1001300086579A4FDC018D919C911197880F991FDA
:100140009183808308958091EC009091ED00019659
:100150009093ED008093EC00209164003091650055
:100160008217930751F483E060E10E94A40B109280
:10017000ED001092EC000E94D90008958091EA00F1
:100180009091EB0001969093EB008093EA00209110
:100190006200309163008217930751F483E064E0BA
:1001A0000E94A40B1092EB001092EA000E94A300A0
:1001B00008958091E8009091E90001969093E900FC
:1001C0008093E800209160003091610082179307CE
:1001D00051F483E064E00E94A40B1092E9001092B5
:1001E000E8000E94BE0008958091E600873011F07B
:1001F000813091F483E064E04FEF0E943B0B8091EB
:10020000E8009091E90001969093E9008093E8005E
:1002100081E08093E60022C0843071F483E068E0DE
:100220004FEF0E943B0B8091EA009091EB0001960A
:100230009093EB008093EA008091E600853071F4A2
:1002400083E060E14FEF0E943B0B8091EC009091C6
:10025000ED0001969093ED008093EC002091E80072
:100260003091E90080916000909161002817390772
:1002700009F583E064E040E00E943B0B81E40E94CA
:10028000E81184E40E94E81183E40E94E81180E30D
:100290000E94E8118DE30E94E8118091E80090919E
:1002A000E9000E9406121092E9001092E80084E032
:1002B0008093E6002091EA003091EB00809162008B
:1002C000909163002817390761F58091E60084302A
:1002D00041F583E064E040E00E943B0B83E068E08E
:1002E0000E94A40B80E20E94E81181E40E94E811C0
:1002F00084E40E94E81183E40E94E81181E30E94F3
:10030000E8118DE30E94E8118091EA009091EB00E2
:100310000E9406121092EB001092EA0085E0809392
:10032000E6002091EC003091ED0080916400909106
:1003300065002817390751F58091E600853031F5C1
:1003400083E068E040E00E943B0B83E060E10E94B4
:10035000A40B80E20E94E81181E40E94E81184E489
:100360000E94E81183E40E94E81182E30E94E811F0
:100370008DE30E94E8118091EC009091ED000E94C5
:1003800006121092ED001092EC0004C08091E6007D
:10039000863011F41092E6000895089583E00E94DB
:1003A0001A050895CF93C62F8230A1F0833020F430
:1003B000813009F042C005C0833051F18430E9F545
:1003C00012C083E061E00E94490583E06C2F0E9427
:1003D000F20534C083E062E00E94490583E06C2F9F
:1003E0000E94F2052BC081E061E00E94490582E095
:1003F00062E00E94490583E06C2F0E94F20581E0D3
:1004000060E00E94490582E060E00E94490516C054
:1004100081E062E00E94490582E061E00E944905B6
:1004200083E06C2F0E94F20581E060E00E944905A4
:1004300082E060E00E94490501C080E0CF9108950C
:1004400081E068E04FEF0E943B0B6AE070E080E0E3
:1004500090E00E94780681E068E040E00E943B0B5B
:100460006AE070E080E090E00E947806089588EBF2
:1004700090E00E94DF0A0895CF93C82FC295CF70F5
:10048000C0FF06C081E060E14FEF0E943B0B05C05A
:1004900081E060E140E00E943B0BC1FF06C081E0CB
:1004A00060E24FEF0E943B0B05C081E060E240E05C
:1004B0000E943B0BC2FF06C081E060E44FEF0E9448
:1004C0003B0B05C081E060E440E00E943B0BC8703C
:1004D00031F081E060E84FEF0E943B0B05C081E006
:1004E00060E840E00E943B0BCF910895CF93C82F66
:1004F00081E062E04FEF0E943B0B8C2F0E943C0298
:100500000E9420028C2F8295807F0E943C020E94D4
:100510002002CF910895CF93C82F81E062E040E0A0
:100520000E943B0B8C2F0E943C020E9420028C2FC9
:100530008295807F0E943C020E94200261E070E070
:1005400080E090E00E946206CF91089564E170E03F
:1005500080E090E00E94620680E00E943C0281E020
:1005600062E040E00E943B0B81E064E040E00E94DA
:100570003B0B81E068E040E00E943B0B88E20E9478
:100580008B0288E30E948B0282E30E948B028EE042
:100590000E948B0281E00E948B026AE070E080E0A2
:1005A00090E00E94620686E00E948B028CE00E942E
:1005B0008B02089581E00E948B020895CF93DF9310
:1005C000EC018881882331F021960E94760289917E
:1005D0008823D9F7DF91CF910895623031F06330ED
:1005E00031F0613029F4805C03C08C5E01C08C5A0C
:1005F00080680E948B0208950F931F93CF93DF931F
:100600004017510762077307C0F4D8011196A80F6D
:10061000B91FFC01E40FF51F4F5F5F4F6F4F7F4F16
:100620000150104020403040C081DE91D193CC93E6
:10063000401751076207730778F3DF91CF911F913D
:100640000F9108954F925F926F927F928F929F9237
:10065000AF92BF92CF92DF92EF92FF920F931F93D0
:10066000CF93DF936B017C012A0148015901D90125
:10067000C8010297A109B1098F319105A105B10502
:1006800008F049C09601DD201CF4309521953F4FBC
:100690002115310539F1E20101E010E06901EE2494
:1006A000D7FCE094FE2CC701B601A50194010E947D
:1006B00010296A30710524F0695C6883380103C031
:1006C000605D68833801C701B601A50194010E94ED
:1006D00010290F5F1F4F219621153105F9F661147E
:1006E000710431F480E3F2018083662477246394FB
:1006F000F201E60DF71D108208946108710883016C
:10070000222717FD2095322FC20140E050E0BA01A8
:100710000E94FC022C01842D952DDF91CF911F9119
:100720000F91FF90EF90DF90CF90BF90AF909F9090
:100730008F907F906F905F904F900895813049F037
:10074000813028F0823039F0833041F406C06ABB32
:10075000089567BB089564BB089561BB0895813017
:1007600049F0813028F0823039F0833041F406C0FE
:100770006BBB089568BB089565BB089562BB08957F
:10078000813059F0813028F0823059F0833081F483
:100790000CC08BB380958BBB089588B3809588BBC4
:1007A000089585B3809585BB089582B3809582BBFB
:1007B0000895813049F0813028F0823039F083305B
:1007C00049F406C08BB3089588B3089585B308959E
:1007D00082B3089580E00895442319F04F3FD1F586
:1007E00021C0813069F0813028F0823079F0833087
:1007F000C9F412C08AB3962F909589238ABB1BC077
:1008000087B3962F9095892387BB19C084B3962F01
:100810009095892384BB17C081B3962F9095892327
:1008200081BB15C0813059F0813028F0823059F0F9
:10083000833081F40CC08AB3682B6ABB089587B3F8
:10084000682B67BB089584B3682B64BB089581B39C
:10085000682B61BB0895442319F04F3FB1F51DC0CB
:10086000813061F0813028F0823069F0833069F5A1
:100870000FC08BB3609568236BBB089588B36095F8
:10088000682368BB089585B36095682365BB0895A8
:1008900082B36095682362BB0895813059F081303E
:1008A00028F0823059F0833081F40CC08BB3682B70
:1008B0006BBB089588B3682B68BB089585B3682B1C
:1008C00065BB089582B3682B62BB0895813059F0EF
:1008D000813028F0823059F0833081F40CC08BB322
:1008E00068276BBB089588B3682768BB089585B3F4
:1008F000682765BB089582B3682762BB089581307D
:1009000051F0813028F0823049F0833069F409C019
:1009100089B368230AC086B3682307C083B36823FA
:1009200004C080B3682301C060E081E0662309F45D
:1009300080E00895813069F0813028F0823079F0CC
:100940008330C1F412C081E060E14FEF0E94EC03FC
:10095000089581E060E24FEF0E94EC03089581E08A
:1009600060E44FEF0E94EC03089581E060E84FEFF0
:100970000E94EC030895813069F0813028F08230C4
:1009800079F08330C1F412C081E060E14FEF0E9442
:100990002B04089581E060E24FEF0E942B0408953C
:1009A00081E060E44FEF0E942B04089581E060E84D
:1009B0004FEF0E942B040895813069F0813028F0B8
:1009C000823079F08330C1F412C081E060E140E010
:1009D0000E942B04089581E060E240E00E942B0415
:1009E000089581E060E440E00E942B04089581E0D6
:1009F00060E840E00E942B040895813061F081306E
:100A000028F0823069F08330A1F40FC081E060E10A
:100A10000E946604089581E060E20E9466040895E1
:100A200081E060E40E946604089581E060E80E942D
:100A300066040895823079F08330C9F0813039F549
:100A40008093EE0086EC90E00E941A0D8CE690E018
:100A50000E94DF0A089582E08093EE0084EC90E02B
:100A60000E941A0D89E690E00E94DF0A089583E053
:100A70008093EE0086EC90E00E941A0D84EC90E0EA
:100A80000E941A0D86E690E00E94DF0A089581E038
:100A90000895823079F1833009F455C0813009F02E
:100AA00099C0613031F06130D0F0623009F094C00B
:100AB0000BC083E064E04FEF0E943B0B83E068E0F3
:100AC00040E00E943B0B089583E068E04FEF0E94F6
:100AD0003B0B83E064E040E00E943B0B089583E021
:100AE00064E040E00E943B0B83E068E040E00E944D
:100AF0003B0B0895613031F06130D0F0623009F085
:100B00006DC00BC083E060E84FEF0E943B0B83E0B9
:100B100060E440E00E943B0B089583E060E44FEF07
:100B20000E943B0B83E060E840E00E943B0B08958D
:100B300083E060E440E00E943B0B83E060E840E03B
:100B40000E943B0B0895613031F0613070F16230EA
:100B500009F046C015C083E064E04FEF0E943B0BF4
:100B600083E068E040E00E943B0B83E060E440E00B
:100B70000E943B0B83E060E84FEF0E943B0B08951F
:100B800083E064E040E00E943B0B83E068E04FEFCD
:100B90000E943B0B83E060E44FEF0E943B0B83E03D
:100BA00060E840E00E943B0B089583E064E040E091
:100BB0000E943B0B83E060E440E00E943B0B83E03B
:100BC00068E040E00E943B0B83E060E840E00E9468
:100BD0003B0B089580E0089580E0089580E008953B
:100BE00081E00895823069F08330A9F08130F1F41A
:100BF0008093EF002EE130E040E050E00E94440D91
:100C0000089582E08093EF002EE130E040E050E074
:100C10000E94440D089583E08093EF0082E02EE16E
:100C200030E040E050E00E94440D089581E00895D6
:100C3000823079F08330C1F0813011F58091EE007F
:100C4000813001F52EE130E040E050E00E94440D9B
:100C500008958091EE008230B9F42EE130E040E05A
:100C600050E00E94440D08958091EE00833071F4AD
:100C700082E02EE130E040E050E00E94440D089513
:100C800081E0089581E0089581E0089581E008956C
:100C9000813019F0823049F404C081E00E94150FC0
:100CA000089582E00E94150F089581E008959091C3
:100CB000EE00981721F481E0FB0180830895FB0189
:100CC00010820895DC01CB010097A105B10561F404
:100CD00008952150F1F7315011F0242FFACF0197E8
:100CE000A109B10919F4089555E14FEF352FF5CF5A
:100CF000DC01CB010097A105B10521F00197A10905
:100D0000B109E1F708958FE690E00E94DF0A8EEBCB
:100D100090E00E94C30B089582E090E060E170E0F3
:100D20004FEF50E00E943B0B80E06AE070E00E94D1
:100D3000201082E090E060E170E040E050E00E942E
:100D40003B0B08950F931F93CF93DF9300D000D0F8
:100D5000CDB7DEB78C0182E061E0AE014F5F5F4F3F
:100D60000E94F40B29813A81F801318320830F908E
:100D70000F900F900F90DF91CF911F910F910895D9
:100D80008FB780688FBF0895BA98C29A8BB7806278
:100D90008BBF84B7806484BF08958B98939A8BB778
:100DA00080688BBF85B7846085BF85B7877F85BF27
:100DB00008958A98929A8BB780648BBF85B78160BB
:100DC00085BF85B78D7F85BF08958FB78F778FBF1C
:100DD00008951F920F920FB60F9211242F933F93F5
:100DE0004F935F936F937F938F939F93AF93BF9333
:100DF000EF93FF93E0917A05F0917B050995FF91C0
:100E0000EF91BF91AF919F918F917F916F915F9182
:100E10004F913F912F910F900FBE0F901F901895FB
:100E20001F920F920FB60F9211242F933F934F935F
:100E30005F936F937F938F939F93AF93BF93EF9342
:100E4000FF93E0918205F09183050995FF91EF9161
:100E5000BF91AF919F918F917F916F915F914F91D2
:100E60003F912F910F900FBE0F901F9018951F92DA
:100E70000F920FB60F9211242F933F934F935F93CE
:100E80006F937F938F939F93AF93BF93EF93FF9352
:100E9000E0917205F09173050995FF91EF91BF9173
:100EA000AF919F918F917F916F915F914F913F9102
:100EB0002F910F900FBE0F901F9018951F920F92B9
:100EC0000FB60F9211242F933F934F935F936F931D
:100ED0007F938F939F93AF93BF93EF93FF93E09193
:100EE0008805F09189050995FF91EF91BF91AF9128
:100EF0009F918F917F916F915F914F913F912F9132
:100F00000F900FBE0F901F9018951F920F920FB663
:100F10000F9211242F933F934F935F936F937F937F
:100F20008F939F93AF93BF93EF93FF93E0916805E7
:100F3000F09169050995FF91EF91BF91AF919F9154
:100F40008F917F916F915F914F913F912F910F9072
:100F50000FBE0F901F9018951F920F920FB60F9211
:100F600011242F933F934F935F936F937F938F93AE
:100F70009F93AF93BF93EF93FF93E0918405F0911C
:100F800085050995FF91EF91BF91AF919F918F9149
:100F90007F916F915F914F913F912F910F900FBE75
:100FA0000F901F9018951F920F920FB60F92112459
:100FB0002F933F934F935F936F937F938F939F9361
:100FC000AF93BF93EF93FF93E0916E05F0916F05A0
:100FD0000995FF91EF91BF91AF919F918F917F9173
:100FE0006F915F914F913F912F910F900FBE0F9096
:100FF0001F9018951F920F920FB60F9211242F93E6
:101000003F934F935F936F937F938F939F93AF9390
:10101000BF93EF93FF93E0916C05F0916D050995F7
:10102000FF91EF91BF91AF919F918F917F916F91C0
:101030005F914F913F912F910F900FBE0F901F9096
:1010400018951F920F920FB60F9211242F933F9372
:101050004F935F936F937F938F939F93AF93BF93C0
:10106000EF93FF93E0918605F09187050995FF9135
:10107000EF91BF91AF919F918F917F916F915F9110
:101080004F913F912F910F900FBE0F901F90189589
:101090001F920F920FB60F9211242F933F934F93ED
:1010A0005F936F937F938F939F93AF93BF93EF93D0
:1010B000FF93E0917E05F0917F050995FF91EF91F7
:1010C000BF91AF919F918F917F916F915F914F9160
:1010D0003F912F910F900FBE0F901F9018951F9268
:1010E0000F920FB60F9211242F933F934F935F935C
:1010F0006F937F938F939F93AF93BF93EF93FF93E0
:10110000E0917200F09173000995FF91EF91BF910A
:10111000AF919F918F917F916F915F914F913F918F
:101120002F910F900FBE0F901F9018951F920F9246
:101130000FB60F9211242F933F934F935F936F93AA
:101140007F938F939F93AF93BF93EF93FF93E09120
:101150007005F09171050995FF91EF91BF91AF91E5
:101160009F918F917F916F915F914F913F912F91BF
:101170000F900FBE0F901F9018951F920F920FB6F1
:101180000F9211242F933F934F935F936F937F930D
:101190008F939F93AF93BF93EF93FF93E091660577
:1011A000F09167050995FF91EF91BF91AF919F91E4
:1011B0008F917F916F915F914F913F912F910F9000
:1011C0000FBE0F901F9018951F920F920FB60F929F
:1011D00011242F933F934F935F936F937F938F933C
:1011E0009F93AF93BF93EF93FF93E0918005F091AE
:1011F00081050995FF91EF91BF91AF919F918F91DB
:101200007F916F915F914F913F912F910F900FBE02
:101210000F901F9018951F920F920FB60F921124E6
:101220002F933F934F935F936F937F938F939F93EE
:10123000AF93BF93EF93FF93E0917C05F0917D0511
:101240000995FF91EF91BF91AF919F918F917F9100
:101250006F915F914F913F912F910F900FBE0F9023
:101260001F9018951F920F920FB60F9211242F9373
:101270003F934F935F936F937F938F939F93AF931E
:10128000BF93EF93FF93E0917605F0917705099571
:10129000FF91EF91BF91AF919F918F917F916F914E
:1012A0005F914F913F912F910F900FBE0F901F9024
:1012B00018951F920F920FB60F9211242F933F9300
:1012C0004F935F936F937F938F939F93AF93BF934E
:1012D000EF93FF93E0917805F09179050995FF91DF
:1012E000EF91BF91AF919F918F917F916F915F919E
:1012F0004F913F912F910F900FBE0F901F90189517
:101300001F920F920FB60F9211242F933F934F937A
:101310005F936F937F938F939F93AF93BF93EF935D
:10132000FF93E0917405F09175050995FF91EF9198
:10133000BF91AF919F918F917F916F915F914F91ED
:101340003F912F910F900FBE0F901F9018951F92F5
:101350000F920FB60F9211242F933F934F935F93E9
:101360006F937F938F939F93AF93BF93EF93FF936D
:10137000E0916405F09165050995FF91EF91BF91AA
:10138000AF919F918F917F916F915F914F913F911D
:101390002F910F900FBE0F901F9018951F920F92D4
:1013A0000FB60F9211242F933F934F935F936F9338
:1013B0007F938F939F93AF93BF93EF93FF93E091AE
:1013C0006A05F0916B050995FF91EF91BF91AF917F
:1013D0009F918F917F916F915F914F913F912F914D
:1013E0000F900FBE0F901F9018950895CF93DF9325
:1013F000EC0197B18A81892B87B988818F3F39F0B9
:1014000087B1807F87B997B18881892B87B997B1D8
:101410008B81892B87B90E94C00696B18C81892B5C
:1014200086B985EF99E0909377058093760596B11C
:101430008981892B86B9379A369A80E0DF91CF91DE
:10144000089584E890E00E94F609369A86B184FFF8
:10145000FDCF24B135B185B196B1982F8827820F81
:10146000931F9093990580939805089589E890E0DB
:101470000E94F609369A86B184FFFDCF24B135B1BA
:1014800085B196B1982F8827820F931F9093970567
:101490008093960508958EE890E00E94F609369AAA
:1014A00086B184FFFDCF24B135B185B196B1982FB7
:1014B0008827820F931F9093950580939405089534
:1014C00083E990E00E94F609369A86B184FFFDCF49
:1014D00024B135B185B196B1982F8827820F931F1B
:1014E0009093930580939205089588E990E00E9477
:1014F000F609369A86B184FFFDCF24B135B185B1A6
:1015000096B1982F8827820F931F9093910580930F
:10151000900508958DE990E00E94F609369A86B10B
:1015200084FFFDCF24B135B185B196B1982F8827BE
:10153000820F931F90938F0580938E05089582EA02
:1015400090E00E94F609369A86B184FFFDCF24B15F
:1015500035B185B196B1982F8827820F931F90934C
:101560008D0580938C05089587EA90E00E94F60926
:10157000369A86B184FFFDCF24B135B185B196B1DD
:10158000982F8827820F931F90938B0580938A054D
:101590000895E091F000E83078F4F0E0EE0FFF1FDE
:1015A000EC58FF4F0190F081E02D09958091F000FB
:1015B0008F5F8093F00008951092F0000895FC0171
:1015C000009709F450C08281882321F08F3F09F0F1
:1015D0004CC027C08081813079F0813030F082307A
:1015E00091F0833009F043C015C09AB38181809592
:1015F00089238ABB80E0089597B3818180958923F0
:1016000087BB80E0089594B381818095892384BB52
:1016100080E0089591B381818095892381BB80E02A
:1016200008958081813069F0813028F0823079F02E
:101630008330F9F412C09AB38181892B8ABB80E090
:10164000089597B38181892B87BB80E0089594B377
:101650008181892B84BB80E0089591B38181892B9E
:1016600081BB80E0089586E1089581E0089580E0DF
:10167000089580E00895442321F04F3F09F03FC0D2
:1016800021C0813069F0813028F0823079F08330D8
:10169000C1F512C08BB3609568236BBB80E00895E1
:1016A00088B36095682368BB80E0089585B3609532
:1016B000682365BB80E0089582B36095682362BBB0
:1016C00080E00895813061F0813028F0823069F047
:1016D0008330C9F40FC08BB3682B6BBB80E00895D7
:1016E00088B3682B68BB80E0089585B3682B65BB21
:1016F00080E0089582B3682B62BB80E0089581E0AA
:10170000089580E0089580E00895FA01813059F04D
:10171000813028F0823059F0833081F40CC089B3D5
:10172000682360830BC086B36823608307C083B3DC
:101730006823608303C080B368236083808188232B
:1017400011F081E080830895813061F0813028F0CC
:10175000823069F08330A9F40FC08BB368276BBB6C
:1017600080E0089588B3682768BB80E0089585B35A
:10177000682765BB80E0089582B3682762BB80E07C
:10178000089581E00895CF93DF93EC010E94C00695
:101790008881813041F0813018F0823049F406C0F0
:1017A0000E94D90605C00E94CD0602C00E94C40650
:1017B0008981813051F0813018F0823089F40CC079
:1017C00085E083BF81E089BF0BC085E090E09FBDCD
:1017D0008EBD84E089BF04C087E085BD84E089BFF9
:1017E00080E0DF91CF9108950F931F93813049F0EE
:1017F000813018F0823071F40AC083B7836083BFF0
:1018000009C08EB59FB585609FBD8EBD03C085B5EF
:10181000876085BD613001F1613018F06230D1F52B
:101820002AC08091F5009091F600A091F700B09148
:10183000F8000091F1001091F2002091F300309136
:10184000F400800F911FA21FB31FFA0180839183C0
:10185000A283B38380E01FC08091F5009091F600D1
:10186000A091F700B091F800FA0180839183A283E0
:10187000B38380E010C08091F1009091F200A091BC
:10188000F300B091F400FA0180839183A283B383C3
:1018900080E001C081E01F910F910895CF93C2B7FE
:1018A0006091010170E080E090E02FEF30E040E0D7
:1018B00050E00E94DD28DC01CB018C0F911DA11DA1
:1018C000B11D8093020190930301A0930401B09392
:1018D00005011092010184B78295869586958370E3
:1018E00080FF30C08091020190910301A09104011A
:1018F000B09105018093FD009093FE00A093FF003E
:10190000B09300018091FD009091FE00A091FF0036
:10191000B09100014091F9005091FA006091FB00F4
:101920007091FC00841B950BA60BB70B8093F10004
:101930009093F200A093F300B093F40084B78F7BF0
:1019400084BF2FC08091020190910301A0910401F6
:10195000B09105018093F9009093FA00A093FB00E9
:10196000B093FC008091F9009091FA00A091FB00E7
:10197000B091FC004091FD005091FE006091FF008D
:1019800070910001841B950BA60BB70B8093F5009B
:101990009093F600A093F700B093F80084B78064AA
:1019A00084BFCF9108958130C1F0813018F082302A
:1019B000D1F526C082E061E046E051E00E94850B4F
:1019C00080910601813081F5909109019F5F90938C
:1019D0000901933370F580E0089581E064E047E009
:1019E00051E00E94850B809107018130F9F49091BC
:1019F00009019F5F909309019333D8F480E0089523
:101A000080E064E048E051E00E94850B809108018D
:101A1000813071F490910A019F5F90930A01953192
:101A200040F480E00895089580E0089580E00895EE
:101A300080E00895FC018081813061F0813028F0E0
:101A4000823081F08330D9F415C083B7886683BFB4
:101A500080E016C08EB59FB58062916A9FBD8EBD35
:101A600080E00EC08EB59FB58062916A9FBD8EBD2D
:101A700080E006C085B5886685BD80E001C081E054
:101A8000918190930C010895CF92DF92EF92FF9293
:101A90000F931F9389019A010F2EFEEACF2EF0EFCC
:101AA000DF2EFFEFEF2EFFEFFF2EF02DC00ED11E29
:101AB000E21EF31E9BE3C9169BE6D90690E0E906F9
:101AC00090E0F90618F410920C01A2C00F2EFBE270
:101AD000CF2EFCEFDF2EFFEFEF2EFFEFFF2EF02DCE
:101AE000C00ED11EE21EF31E9DE7C9169BE0D9066B
:101AF00090E0E90690E0F90620F491E090930C0163
:101B0000A5C00F2EF5E1CF2EFEEFDF2EFFEFEF2E5B
:101B1000FFEFFF2EF02DC00ED11EE21EF31E9AEE37
:101B2000C91691E0D90690E0E90690E0F90620F4A4
:101B300092E090930C01A1C00F2EFAE0CF2EFFEFA0
:101B4000DF2EFFEFEF2EFFEFFF2EF02DC00ED11E88
:101B5000E21EF31E95EFC916D104E104F10420F44E
:101B600093E090930C0190C00F2EF5E8CF2EFFEF7D
:101B7000DF2EFFEFEF2EFFEFFF2EF02DC00ED11E58
:101B8000E21EF31E9BE7C916D104E104F10420F420
:101B900094E090930C01A5C00F2EF0EECF2EFFEF36
:101BA000DF2EFFEFEF2EFFEFFF2EF02DC00ED11E28
:101BB000E21EF31E9BE5C916D104E104F10420F4F2
:101BC00095E090930C0177C00150104020403040C8
:101BD0000F3111052105310520F496E090930C0199
:101BE00086C090910C01933009F44EC0943030F4CB
:101BF000913061F1923008F040C00AC0953009F48C
:101C00005AC0953008F46DC0963009F08DC06FC091
:101C1000813061F0813030F0823071F0833009F032
:101C200083C010C083B7816083BF88C08EB59FB565
:101C300081609FBD8EBD98C08EB59FB581609FBDF0
:101C40008EBDADC085B5816085BDC4C0833018F43C
:101C5000813048F404C0833009F066C00AC083B7FD
:101C6000826083BF6BC02EB53FB522603FBD2EBDE5
:101C70005BC085B5826085BDADC0833009F054C0BE
:101C800085B5836085BDA6C0833018F4813048F4E3
:101C900004C0833009F048C00AC083B7836083BFA3
:101CA0004DC02EB53FB523603FBD2EBD3DC085B5AF
:101CB000846085BD8FC0833018F4813040F403C048
:101CC000833091F50AC083B7836083BF37C02EB5D8
:101CD0003FB523603FBD2EBD27C085B5846085BD5F
:101CE00079C0833009F585B5856085BD73C08130C5
:101CF00059F0813028F0823069F08330A9F410C0A7
:101D000083B7856083BF1AC08EB59FB581609FBDC4
:101D10008EBD2AC08EB59FB585609FBD8EBD3FC06C
:101D200085B5876085BD56C08130F1F0813030F0D7
:101D30008230A9F1833009F063C04CC070E080E0CC
:101D400090E00E94EC2720E030E048EC52E40E9452
:101D5000582720E030E04FE753E40E947A280E94A1
:101D6000C0276CBF80E04DC070E080E090E00E9432
:101D7000EC2720E030E048EC52E40E94582720E0B5
:101D800030E04FE753E40E947A280E94C027DC012C
:101D9000CB019BBD8ABD99BD88BD80E032C070E09B
:101DA00080E090E00E94EC2720E030E048EC52E434
:101DB0000E94582720E030E04FE753E40E947A2841
:101DC0000E94C027DC01CB019BBD8ABD99BD88BDA7
:101DD00080E017C070E080E090E00E94EC2720E0F7
:101DE00030E048EC52E40E94582720E030E04FE712
:101DF00053E40E947A280E94C02763BD80E001C09E
:101E000081E091E090930D011F910F91FF90EF9071
:101E1000DF90CF90089590910D01913021F40E94B0
:101E2000440D80E0089581E00895833018F48130F6
:101E300048F403C0833081F40AC083B7887F83BF2E
:101E400080E0089583B7887F83BF80E0089585B5DB
:101E5000887F85BD80E0089581E008951F93CF932A
:101E6000DF93EC018B8180930E01209711F010E03D
:101E700001C010E28881813009F44CC0813020F02B
:101E8000823009F0D8C093C083B783BF8981813085
:101E9000B9F0813018F08230E1F526C08A818823BC
:101EA00019F0813059F404C089B78C7F89BF32C0E2
:101EB0000E94C00689B7816089BF2CC01F5F2AC0FD
:101EC00083B78D6083BF8A81882319F0813059F4EC
:101ED00004C089B78C7F89BF07C00E94C00689B73C
:101EE000816089BF01C01F5F83B78C6083BF8A8117
:101EF000882319F0813059F404C089B78C7F89BFD9
:101F000009C00E94C00689B7816089BF03C01F5FF6
:101F100001C01F5F89818130D1F0813020F0823093
:101F200009F043C02BC01FBC1EBC8A81882319F056
:101F3000813059F404C089B7837C89BF7CC00E947A
:101F4000C00689B7846089BF76C01F5F74C08EB534
:101F50009FB587609FBD8EBD8A81882319F081302F
:101F600059F404C089B7837C89BF65C00E94C0064C
:101F700089B7846089BF5FC01F5F5DC08EB59FB5A4
:101F800086609FBD8EBD8A81882319F0813059F407
:101F900004C089B7837C89BF4EC00E94C00689B740
:101FA000846089BF48C01F5F46C01F5F44C085B5BD
:101FB00085BD8981882319F08130E1F512C08A81BD
:101FC000882319F0813059F404C089B78F7389BF11
:101FD00032C00E94C00689B7806C89BF2CC01F5FC9
:101FE0002AC082B5886082BD8A81813049F0813003
:101FF00018F08230F9F40AC089B78F7389BF1AC00C
:102000000E94C00689B7806C89BF14C082B5886001
:1020100082BD8A81882319F0813059F404C089B7C0
:102020008F7389BF07C00E94C00689B7806C89BFC3
:1020300001C01F5F1F5F812FDF91CF911F91089516
:10204000813009F44FC0813020F0823009F0F3C0B4
:1020500097C080910E01843021F1853030F48130B9
:1020600051F0823009F0E9C011C0863029F1873083
:1020700009F0E3C02CC06F3F710508F0E0C083B7E2
:10208000816083BF609562BF80E008956F3F7105F6
:1020900008F0D7C083B7826083BF609562BF80E0DD
:1020A00008956F3F710508F0CEC083B7836083BF8A
:1020B000609562BF80E008956F3F710508F0C5C06C
:1020C00083B7846083BF609562BF80E008956F3FEF
:1020D000710508F0BCC083B7856083BF609562BF9F
:1020E00080E0089580910E01843031F1853030F424
:1020F000813051F0823009F0ACC012C0863041F11D
:10210000873009F0A6C030C08EB59FB581609FBDF5
:102110008EBD709561957F4F7DBD6CBD80E008954B
:102120008EB59FB582609FBD8EBD709561957F4FC6
:102130007DBD6CBD80E008958EB59FB583609FBD69
:102140008EBD709561957F4F7DBD6CBD80E008951B
:102150008EB59FB584609FBD8EBD709561957F4F94
:102160007DBD6CBD80E008958EB59FB585609FBD37
:102170008EBD709561957F4F7DBD6CBD80E00895EB
:1021800080910E01843079F1853040F48230C9F0BD
:10219000833010F5813009F05EC008C08630B9F197
:1021A000863058F1873009F056C03BC06F3F71054B
:1021B00008F053C085B5816085BD609564BD80E041
:1021C00008956F3F710508F04AC085B5826085BDEE
:1021D000609564BD80E0089585B5836085BD609598
:1021E00064BD80E008956F3F7105D8F585B58460C2
:1021F00085BD609564BD80E008956F3F710598F5D9
:1022000085B5856085BD609564BD80E008956F3FAC
:10221000710558F585B5866085BD609564BD80E023
:1022200008956F3F710518F585B5876085BD609588
:1022300064BD80E0089581E0089580E0089580E025
:10224000089580E0089580E0089580E0089580E09A
:10225000089580E0089580E0089580E0089580E08A
:10226000089580E0089580E0089580E0089580E07A
:102270000895813051F0813018F0823091F40CC013
:1022800083B7887F83BF80E008958EB59FB5887F30
:102290009FBD8EBD80E0089585B5887F85BD80E0B7
:1022A000089581E00895813059F0813018F082302E
:1022B000C9F40EC088B78170FB01808380E0089567
:1022C00088B7869586958170FB01808380E00895AC
:1022D00088B782958695869583708170FB0180838F
:1022E00080E0089581E00895FB01813051F0813054
:1022F00018F0823089F40BC082B78083118280E0AD
:1023000008958CB59DB59183808380E0089584B550
:102310008083118280E0089581E008950F938333D4
:1023200071F0843318F4893179F40CC0843421F0CD
:10233000873651F489B908C084E489B905C083E3BC
:1023400089B902C089E189B9662331F0613011F0A1
:1023500080E003C088E801C080E82230A1F023308B
:1023600028F4222341F02130B9F409C0233079F058
:10237000243091F40FC08068897F52980DC0826824
:102380008B7F529809C089778468529805C0866807
:10239000529802C08668529A002319F0013029F43D
:1023A00003C080688F7B01C0806C413041F04130B8
:1023B00018F0423041F406C080688F7C04C08F74EE
:1023C000806A01C0806B80BD539A549A0F91089522
:1023D0005D9BFECF8CB908955F9BFECF8CB10895B5
:1023E0000E94C006579A569A6F9A08958CB18093AE
:1023F0009A05089580919A058CB9089580939A055D
:1024000008958CB90895539854980895EF92FF92C7
:102410000F931F93CF93DF93E8E1F1E00F2EFBEFD3
:10242000EF2EFFEFFF2EF02DEE0EFF1EEF01249793
:102430002AE030E0B9010E94FC288293862F972F72
:10244000EC17FD07B9F76093130103E111E0E70111
:102450002596F80181918F01805D0E94E8110C178B
:102460001D07B9F7DF91CF911F910F91FF90EF906A
:10247000089587E660E040E023E000E00E948E11CE
:102480000E94A60288EB90E00E94DF0A85EB90E0B4
:102490000E94DF0A82EB90E00E94DF0A8FED90E05D
:1024A0000E94682684E890E061E041E025E030E0A9
:1024B0000E94BB2684EF90E061E044E021E030E040
:1024C0000E94BB2684E790E061E043E022E030E038
:1024D0000E94BB260E94D826FDCF442341F46823E6
:1024E000792381E06115710551F480E008959B0125
:1024F0002823392381E06217730709F080E00895EB
:10250000CF93DF938BE090E00E941614EC010097CC
:1025100031F0FC0111921192CF010E945B148C2FBB
:102520009D2FDF91CF910895AF92BF92CF92DF920E
:10253000EF92FF920F931F93CF93DF935C016B0198
:10254000E42EF22E0E943021F501C081D181CE010E
:10255000B6014F2D0E946D12882351F0EE2001F13B
:10256000C094D094CC22DD22F501D182C08218C063
:1025700001151105A9F0EE2019F460E070E002C029
:1025800060E071E0F11074606C297D29C50102964C
:10259000A8010E9410230E940E22882339F404C04F
:1025A0000E940E22CE0121C00E94AD150E94FD2383
:1025B000EC0191FD18C00FB6F8940F92F501C0819F
:1025C000D181CE01B6014F2D0E946D12882349F0B2
:1025D000EE2039F0C094D094CC22DD22F501D182D6
:1025E000C0820F900FBECE019070DF91CF911F91EE
:1025F0000F91FF90EF90DF90CF90BF90AF90089534
:10260000FC010FB6F8940F928081918160957095CE
:1026100068237923718360830F900FBE0895FC01B6
:10262000808191810895AF92BF92CF92DF92EF9215
:10263000FF920F931F93CF93DF938C01EB010F2E2B
:10264000F5E0CF2EDD24F02DC80ED91E0E943021DA
:10265000D8011796ED91FC9118978D919C91119747
:102660008C2B9D2B11969C938E93CE16DF06C1F179
:10267000AA24BB24FF24F394EE2401C0FE01C281EE
:10268000D38180819181BC0160709C01307092FD8A
:102690000BC0D8018D919C911197822393234F2DCC
:1026A000009769F44E2D0BC0D8018D919C91119724
:1026B000822393234F2D2817390709F04E2D4423E9
:1026C00059F070FF02C0A22AB32AD8016D917C9103
:1026D0007260CF010E947423CC16DD0679F602C029
:1026E000AA24BB24C50180959095F801A080B180F3
:1026F000A822B922B182A0820E940E22D8018C9118
:1027000011969C911197DF91CF911F910F91FF909E
:10271000EF90DF90CF90BF90AF900895AF92BF92AF
:10272000CF92DF92EF92FF920F931F93CF93DF939D
:102730006C01EB017A0159010E943021F601008100
:102740001181C601BE010E941313C02BD12BC701FA
:102750008C239D238E159F0551F480959095F6014D
:1027600020813181822393239183808312C0A1141D
:10277000B10461F0B7017560C6010296A5010E941F
:1027800010230E940E22882349F406C0F601C0815E
:10279000D1810E940E221CC00E94AD150E94FD2313
:1027A00091FD14C00FB6F8940F92F60180819181CB
:1027B0009701282339232E153F0531F420953095B4
:1027C00028233923318320830F900FBEEC01D07072
:1027D0008C2F9D2FDF91CF911F910F91FF90EF9044
:1027E000DF90CF90BF90AF900895CF93DF93EC012F
:1027F0000E9430218A81882349F08F81988560E08A
:1028000072E00E9474238A818823B9F7CE010E9466
:102810004C140E940E22DF91CF910895BA010E94BC
:1028200013130895BA010E9400130895CF93DF9304
:10283000EC010E94302180911801909119010097BC
:1028400031F48BE191E0909319018093180120916C
:10285000020530910305CE01820F931F43E0873EAE
:10286000940770F42817390770F4C0911801D091BB
:102870001901C20FD31F909303058093020505C071
:10288000C0E0D0E002C0C0E0D0E00E940E228C2F59
:102890009D2FDF91CF910895089510920305109216
:1028A00002050895209102053091030587EE93E01B
:1028B000821B930B0895FC010396928381832FEF73
:1028C0003FEF3483238396838583908787831082A9
:1028D0000895FC01118610860895CF93DF93FB01C4
:1028E000DC011196CD91DC911297D383C2832C81A8
:1028F0003D8135832483AC81BD8113967C936E9397
:1029000012977D836C8391878087FC0120812F5FE4
:102910002083DF91CF910895CF93DF93AC01EB013A
:10292000288139818FEF2F3F380721F4FA01A781E1
:10293000B0850DC0DA01139601C0DF011296ED914A
:10294000FC9113978081918128173907B0F712966F
:10295000ED91FC911397FB83EA83D583C483BD83F8
:10296000AC831396DC93CE93129759874887FA016C
:1029700080818F5F8083DF91CF910895CF93DF9324
:10298000FC01C085D185A281B38184819581159692
:102990009C938E931497A481B58182819381139621
:1029A0009C938E931297A981BA81AE17BF0731F419
:1029B00014968D919C9115979A8389831186108620
:1029C0008881815088838881DF91CF91089521E1AA
:1029D000FC012083319732E23083FC013297A3E37C
:1029E000A083FC0133976083FC0134977083FC0162
:1029F00035971082FC01369760E86083FC013797B9
:102A00001082FC01389762E06083FC01399763E033
:102A10006083FC013A9764E06083FC013B9765E0CA
:102A20006083FC013C9766E06083FC013D9767E0B2
:102A30006083FC013E9768E06083FC013F9769E09A
:102A40006083FC01709760E16083FC0171972083D3
:102A5000FC01729722E12083FC01739723E120831C
:102A6000FC01749724E12083FC01759725E1208304
:102A7000FC01769726E12083FC01779727E12083EC
:102A8000FC01789728E12083FC01799729E12083D4
:102A9000FC017A9720E22083FC017B9721E22083CE
:102AA000FC017C973083FC017D9723E22083FC01AD
:102AB0007E974083FC017F975083FC01B09726E20C
:102AC0002083FC01B19727E22083FC01B29728E222
:102AD0002083FC01B39729E22083FC01B49720E313
:102AE0002083FC01B59721E32083869708951BBCC2
:102AF00089EF8ABD8BE08EBD89B7806189BFA091C7
:102B00000405B0910505CD91CDBFDD91DEBFFF91EC
:102B1000EF91DF91CF91BF91AF919F918F917F9175
:102B20006F915F914F913F912F911F910F91FF9066
:102B3000EF90DF90CF90BF90AF909F908F907F905D
:102B40006F905F904F903F902F901F900F900FBE0F
:102B50000F90089581E0089508950F920FB6F894AC
:102B60000F921F9211242F923F924F925F926F9279
:102B70007F928F929F92AF92BF92CF92DF92EF920D
:102B8000FF920F931F932F933F934F935F936F93F6
:102B90007F938F939F93AF93BF93CF93DF93EF93E5
:102BA000FF93A0910405B09105050DB60D920EB6E8
:102BB0000D920E94A222A0910405B0910505CD912D
:102BC000CDBFDD91DEBFFF91EF91DF91CF91BF913E
:102BD000AF919F918F917F916F915F914F913F91B5
:102BE0002F911F910F91FF90EF90DF90CF90BF90AA
:102BF000AF909F908F907F906F905F904F903F909D
:102C00002F901F900F900FBE0F9008950F920FB648
:102C1000F8940F921F9211242F923F924F925F923D
:102C20006F927F928F929F92AF92BF92CF92DF92DC
:102C3000EF92FF920F931F932F933F934F935F93C6
:102C40006F937F938F939F93AF93BF93CF93DF93B4
:102C5000EF93FF93A0910405B09105050DB60D9279
:102C60000EB60D920E945021882311F00E94A222DC
:102C7000A0910405B0910505CD91CDBFDD91DEBFDA
:102C8000FF91EF91DF91CF91BF91AF919F918F9184
:102C90007F916F915F914F913F912F911F910F9174
:102CA000FF90EF90DF90CF90BF90AF909F908F906C
:102CB0007F906F905F904F903F902F901F900F905C
:102CC0000FBE0F9008950E94061618950FB6F8943F
:102CD0000F92FC01928D0F900FBE81E0911180E068
:102CE0000895FC01448D4423C1F026813781240FCF
:102CF000311D37832683A481B5812A173B0720F035
:102D0000208131813783268336812781862F972F33
:102D1000632F722F50E00E94322908950F931F9362
:102D2000CF93DF93EC01142F0A8D4C8D4423B9F11E
:102D30001123B1F48A819B8150E00E9432292C8DAD
:102D40008A819B81820F911D9B838A832C813D8187
:102D50008217930720F1888199819B838A831FC002
:102D60008E819F8150E00E9432294C8D50E0509519
:102D700041955F4F8E819F81840F951F9F838E8326
:102D8000288139818217930730F48C819D81840FCB
:102D9000951F9F838E83123011F4011101500F5F34
:102DA0000A8F80E0DF91CF911F910F910895EF92EC
:102DB000FF920F931F93CF938C010FB6F8940F924D
:102DC000FC01C68D1C16CCF48189882331F415C012
:102DD000F8018189882341F410C00F2EF1E1EF2E14
:102DE000FF24F02DE00EF11EC7010E942923882345
:102DF00011F00E94F423C15059F78FEFF801868F2C
:102E00000F900FBE0FB6F8940F92F801C58D1C16E7
:102E1000C4F48085882331F414C0F80180858823A8
:102E200039F40FC0EE24FF246894E3F8E00EF11E9D
:102E3000C7010E942923882311F00E94F423C15066
:102E400061F78FEFF801858F0F900FBECF911F9123
:102E50000F91FF90EF900895CF93DF93EC010FB6A1
:102E6000F8940F92488159812B8DEC8D30E0F0E081
:102E70002E9FC0012F9F900D3E9F900D1124840F17
:102E8000951F9D838C831A8E5B834A83C9010197AA
:102E90008E9F90018F9F300D9E9F300D1124240F27
:102EA000351F3F832E838FEF8D8F8E8F662361F4C6
:102EB0008885882389F0CE0108960E9429238823DB
:102EC00059F00E94AD1508C0CE0108960E945B140F
:102ED000CE0141960E945B140F900FBE81E0DF91FE
:102EE000CF9108950F931F93CF93DF93082F162F41
:102EF000662321F0689FC001112402C080E090E0A9
:102F00004F960E941614EC01009771F0112319F4EA
:102F10009983888303C04F96998388830B8F1C8F76
:102F2000CE0161E00E942C178C2F9D2FDF91CF9155
:102F30001F910F9108958F929F92BF92CF92DF922F
:102F4000EF92FF920F931F93CF93DF9300D000D0A7
:102F50000F92CDB7DEB78C014B015D834C83E22E1F
:102F6000FF24BB24B394CC24DD246894C3F8C80E9A
:102F7000D91E0FB6F8940F92F801928D838D981791
:102F800018F0F2E0EF16D1F4C801B4014E2D0E9402
:102F90008E16F8019189992349F0C80141960E9443
:102FA0002923882339F00E94AD1504C0882311F02D
:102FB0000E94AD150F900FBE81E052C08C819D81A3
:102FC000009721F40F900FBE80E04AC0FF2029F443
:102FD000CE0101960E94BC23FB2C0F900FBE0E94D5
:102FE00030210FB6F8940F92F801858D8F3F09F4C8
:102FF000158EF801868D8F3F09F4168E0F900FBE47
:10300000CE010196BE016C5F7F4F0E94C7238823CB
:1030100009F50FB6F8940F92F801928D0F900FBE3C
:10302000F801838D981781F46C817D81C6010E941F
:10303000FE22C8010E94D7160E940E22882309F0A2
:1030400098CF0E94AD1595CFC8010E94D7160E9457
:103050000E228FCFC8010E94D7160E940E2280E058
:103060000F900F900F900F900F90DF91CF911F91C5
:103070000F91FF90EF90DF90CF90BF909F908F9037
:103080000895EF92FF920F931F93CF938C017A01D3
:10309000FC01928D838D981710F02230F1F4F80125
:1030A000C68DC801422F0E948E16CF3F89F4F801C9
:1030B00081898823A1F0C80141960E942923882391
:1030C00081F0E114F10479F081E0F70180830CC014
:1030D000CF5FF801C68F81E007C080E005C081E0C6
:1030E00003C081E001C081E0CF911F910F91FF905B
:1030F000EF900895CF93DF93FC01EB01828D938DC8
:103100008917B8F4968D8F5F828F9F3F71F4818904
:10311000882389F0CF0141960E942923882369F0F2
:10312000209769F081E088830BC09F5F968F81E0D4
:1031300007C080E005C081E003C081E001C081E0FC
:10314000DF91CF9108958F929F92AF92BF92DF92BD
:10315000EF92FF920F931F93CF93DF9300D000D095
:103160000F92CDB7DEB77C014B015D834C8300E04D
:10317000DD24D3940F2EF1E1AF2EBB24F02DA80E49
:10318000B91E0FB6F8940F92F701128D1123B1F00A
:10319000C701B4010E9471161150F701128F80858A
:1031A000882341F0C70108960E942923882311F043
:1031B0000E94AD150F900FBE81E052C08C819D81A1
:1031C000009721F40F900FBE80E04AC0002329F43D
:1031D000CE0101960E94BC230D2D0F900FBE0E94C0
:1031E00030210FB6F8940F92F701858D8F3F09F4C7
:1031F000158EF701868D8F3F09F4168E0F900FBE46
:10320000CE010196BE016C5F7F4F0E94C7238823C9
:10321000D9F4C7010E946616882381F06C817D81F4
:10322000C5010E94FE22C7010E94D7160E940E22ED
:10323000882309F0A6CF0E94AD15A3CFC7010E9435
:10324000D7160E940E229DCFC7010E94D7160E945A
:103250000E22C7010E946616882309F492CF80E0EF
:103260000F900F900F900F900F90DF91CF911F91C3
:103270000F91FF90EF90DF90BF90AF909F908F9055
:103280000895CF92DF92EF92FF920F931F93CF9307
:10329000DF9300D000D00F92CDB7DEB78C017D83D5
:1032A0006C83FF24EE24E3940F2EF1E1CF2EDD2476
:1032B000F02DC80ED91E0FB6F8940F92F801828D2A
:1032C000882389F08150828F8085882341F0C8014E
:1032D00008960E942923882311F00E94AD150F90B3
:1032E0000FBE81E052C08C819D81009721F40F9028
:1032F0000FBE80E04AC0FF2029F4CE0101960E9453
:10330000BC23FE2C0F900FBE0E9430210FB6F89404
:103310000F92F801858D8F3F09F4158EF801868D87
:103320008F3F09F4168E0F900FBECE010196BE019D
:103330006C5F7F4F0E94C7238823D9F4C8010E9485
:103340006616882381F06C817D81C6010E94FE2271
:10335000C8010E94D7160E940E22882309F0ABCF25
:103360000E94AD15A8CFC8010E94D7160E940E2258
:10337000A2CFC8010E94D7160E940E22C8010E9447
:103380006616882309F497CF80E00F900F900F9076
:103390000F900F90DF91CF911F910F91FF90EF90C1
:1033A000DF90CF900895AF92BF92CF92DF92EF92CD
:1033B000FF920F931F93CF93DF9300D000D00F9213
:1033C000CDB7DEB78C015B015D834C83FF24EE2417
:1033D000E3940F2EF1E1CF2EDD24F02DC80ED91E7F
:1033E0000FB6F8940F92F801828D8823C1F0E68021
:1033F000F780C801B5010E947116F801F782E682D4
:103400008189882341F0C80141960E94292388239D
:1034100011F00E94AD150F900FBE81E052C08C815B
:103420009D81009721F40F900FBE80E04AC0FF20DD
:1034300029F4CE0101960E94BC23FE2C0F900FBEF2
:103440000E9430210FB6F8940F92F801858D8F3FBE
:1034500009F4158EF801868D8F3F09F4168E0F90B2
:103460000FBECE010196BE016C5F7F4F0E94C72345
:103470008823D9F4C8010E946616882381F06C81E4
:103480007D81C6010E94FE22C8010E94D7160E94BB
:103490000E22882309F0A4CF0E94AD15A1CFC80148
:1034A0000E94D7160E940E229BCFC8010E94D716F9
:1034B0000E940E22C8010E946616882309F490CF4C
:1034C00080E00F900F900F900F900F90DF91CF91B1
:1034D0001F910F91FF90EF90DF90CF90BF90AF9032
:1034E0000895EF92FF920F931F93CF93DF938C0178
:1034F0007A01FC01C28DCC23E9F0D58D0E947116B2
:10350000C150F801C28FDF3F81F480858823A1F08C
:10351000C80108960E942923882381F0E114F10450
:1035200079F081E0F70180830CC0DF5FF801D58F6F
:1035300081E007C080E005C081E003C081E001C0F8
:1035400081E0DF91CF911F910F91FF90EF9008954F
:103550000F931F93CF93DF93EC018A8D882349F05B
:103560000E811F81CE010E9471161F830E8381E0A0
:1035700001C080E0DF91CF911F910F9108950FB6A8
:10358000F8940F92FC01828D0F900FBE0895FC01FC
:103590000FB6F8940F92928D0F900FBE838D891BFA
:1035A0000895FC01828D08950E944C140895FC0139
:1035B000928D81E0911180E00895FC01228D81E0DF
:1035C000938D291380E00895FC0124813581828147
:1035D0009381820F931F40815181841B950B821729
:1035E000930710F0821B930B0895AF92BF92CF9276
:1035F000DF92EF92FF920F931F93CF93DF938C0193
:103600006B01C22FD32F4C175D0708F4EA012097F6
:1036100099F1F801A080B180848195818A199B0974
:103620007E018C179D0708F47C01F801648575857F
:103630006A0D7B1D8C2D9D2D4E2D5F2D0E943229F4
:10364000EC16FD0658F4C6018E0D9F1DAE014E19F5
:103650005F09F801648575850E943229CE018A0DC3
:103660009B1DF801248135818217930710F0821B7E
:10367000930BF801918380838C2F9D2FDF91CF9145
:103680001F910F91FF90EF90DF90CF90BF90AF9080
:1036900008956F927F928F929F92AF92BF92CF9236
:1036A000DF92EF92FF920F931F93CF93DF9300D09F
:1036B000CDB7DEB75C014B017A0169010115110537
:1036C000A9F0FC0160807180BE016F5F7F4FA8018F
:1036D0000E94F51A49815A81C01AD10AE416F506EA
:1036E00028F4F5017182608240E050E0C501B40128
:1036F00096010E94F51A0F900F90DF91CF911F91C4
:103700000F91FF90EF90DF90CF90BF90AF909F9080
:103710008F907F906F900895AF92BF92CF92DF927B
:10372000EF92FF920F931F93CF93DF93EC015B0116
:103730008A01CA80DB808C819D818C199D097A0168
:103740008417950708F47C018C859D858C0D9D1D43
:103750006A2D7B2D4E2D5F2D0E943229E016F10639
:1037600050F4A8014E195F09B5016E0D7F1D8C85BF
:103770009D850E943229C8018C0D9D1D2C813D81A3
:103780008217930710F0821B930B9B838A83802FF1
:10379000912FDF91CF911F910F91FF90EF90DF90CC
:1037A000CF90BF90AF900895CF92DF92EF92FF92AB
:1037B0000F931F93CF93DF9300D0CDB7DEB77C017B
:1037C0006B015A83498321153105B9F0FC018685C7
:1037D00080FD07C04217530708F49A013A832983F2
:1037E0001CC02017310760F0C701BE016F5F7F4F1B
:1037F00042E050E00E948C1B10C080E090E002C0CC
:1038000080E090E00F900F90DF91CF911F910F918A
:10381000FF90EF90DF90CF90089549815A81C701C2
:10382000B6010E948C1BEECF0F93FC018FE0DF01ED
:103830001D928A95E9F7758764875583448337839A
:10384000268306870F910895DF92EF92FF920F93E0
:103850001F93CF93DF938C017B01D42E61157105EB
:1038600019F4EE24FF24E394C80140960E94161434
:10387000EC01009769F0BC01615F7F4FA8014F5FC9
:103880005F4F01E0D01200E0CE0197010E94141CAE
:103890008C2F9D2FDF91CF911F910F91FF90EF9073
:1038A000DF900895FC01268521FD03C00E944C1481
:1038B00008952FE0FC0111922A95E9F708950F93DE
:1038C000FC010FB6F8940F9280859185009781F4E2
:1038D00082859385009771F464857585448155814F
:1038E00026813781CF0106850E94141C81E003C028
:1038F00080E001C080E00F900FBE0F910895FC01A1
:103900006115710511F461E070E08481958186177D
:10391000970720F07783668381E0089580E008951B
:10392000FC01248135814081518162817381C9010B
:10393000840F951F0197861B970B8217930710F032
:10394000821B930B08950E94E41A08954F925F9290
:103950006F927F928F929F92AF92BF92CF92DF929F
:10396000EF92FF920F931F93CF93DF9300D000D07D
:103970000F92CDB7DEB76C012B013A013D832C834A
:10398000FC01868580FF07C088249924689481F80B
:10399000840E951E01C04A018C819D810097B9F16A
:1039A000CE0101960E94AC230FB6F8940F92C60187
:1039B0000E94901C5C018815990528F580E090E034
:1039C0000E9453260E94F823F601938782870F9066
:1039D0000FBEEC80FD8060E070E0CB0120E030E0C5
:1039E000A90100E010E00E947024F60113861286FF
:1039F000CE010196BE016C5F7F4F0E94C7238823D2
:103A000099F2C50102C00F900FBE009721F4C601C4
:103A10000E94901C5C01C601B201A30195018401C2
:103A20000E94D41B7C010097F9F0C6010E94E41AA1
:103A3000F6012681378182179307B0F00E9430216A
:103A4000F60180859185009769F08085918540E039
:103A500050E0BA0120E000E010E00E94EC24F60102
:103A6000118610860E940E228E2D9F2D0F900F9092
:103A70000F900F900F90DF91CF911F910F91FF90BA
:103A8000EF90DF90CF90BF90AF909F908F907F90FE
:103A90006F905F904F900895AF92BF92CF92DF9258
:103AA000EF92FF920F931F93CF93DF93EC016B0183
:103AB0007A0159018E8580FF04C08A010E5F1F4F75
:103AC00001C08A01CE010E94901C9C01CE01B6016A
:103AD000A7010E94D41B6C010097C9F0CE010E947F
:103AE000E41A2E813F818217930788F08885998593
:103AF000009769F08885998540E050E0BA0120E0A0
:103B000000E010E075010E946925198618868C2D49
:103B10009D2DDF91CF911F910F91FF90EF90DF903E
:103B2000CF90BF90AF9008956F927F928F929F92A7
:103B3000AF92BF92CF92DF92EF92FF920F931F93BB
:103B4000CF93DF935C014B013A017901FC0186853B
:103B500080FF05C0CC24DD246894C1F802C0CC24C9
:103B6000DD24E114F10451F10FB6F8940F92C50170
:103B70000E94E41AEC01C816D90648F080E090E0F3
:103B80000E9453260E94F823F501918780870F90A9
:103B90000FBECC16DD06C8F060E070E0CB0120E07F
:103BA00030E0A90100E010E00E947024F5011186C8
:103BB0001086C5010E94E41AEC0104C0C5010E94F0
:103BC000E41AEC01CC16DD0608F5C501B401A30129
:103BD0009E0186010E94491BEC010097C9F00E94DA
:103BE0003021F50182859385009769F08285938560
:103BF00040E050E0BA0120E000E010E00E94EC2438
:103C0000F501138612860E940E2202C0C0E0D0E0A9
:103C10008C2F9D2FDF91CF911F910F91FF90EF90EF
:103C2000DF90CF90BF90AF909F908F907F906F90DC
:103C30000895EF92FF920F931F93CF93DF9300D0DD
:103C4000CDB7DEB78C01FC01868580FF18C0C801A6
:103C50000E94E41A9C0183309105A0F0F801E080F5
:103C6000F180C801BE016F5F7F4F42E050E00E94CB
:103C7000F51A89819A81F801F182E08205C080E01D
:103C800090E002C080E090E00F900F90DF91CF9124
:103C90001F910F91FF90EF900895AF92BF92CF9236
:103CA000DF92EF92FF920F931F93CF93DF936C01FC
:103CB000EB017A015901FC01868580FF03C002E017
:103CC00010E002C000E010E0C6010E94E41A9C016E
:103CD00008171907E0F4C601BE01A7010E94491B9D
:103CE000EC010097B1F0F60182859385009789F089
:103CF0008285938540E050E0BA0120E000E010E0CA
:103D000075010E946925F6011386128602C0C0E083
:103D1000D0E08C2F9D2FDF91CF911F910F91FF90BD
:103D2000EF90DF90CF90BF90AF900895FC0140815D
:103D300051812281338181E04217530709F080E0ED
:103D40000895CF93DF93FC01268520FF03C0C2E0D6
:103D5000D0E002C0C0E0D0E00E94901C21E0C81773
:103D6000D90708F420E0822FDF91CF910895EF92D8
:103D7000FF920F931F93CF93DF93EC017B01888514
:103D80009985009771F08885998540E050E0BA01E7
:103D900020E000E010E00E9469251986188681E085
:103DA00001C080E0DF91CF911F910F91FF90EF90C4
:103DB0000895EF92FF920F931F93CF93DF93EC013F
:103DC0007B018A859B85009771F08A859B8540E001
:103DD00050E0BA0120E000E010E00E9469251B8657
:103DE0001A8681E001C080E0DF91CF911F910F9191
:103DF000FF90EF900895E0911405F09115058081F2
:103E0000882339F48FEF9FEF90930805809307057F
:103E10000895E0911405F09115050580F681E02DD7
:103E20000680F781E02D828193819093080580932D
:103E3000070508950F931F93CF93DF93EC01009133
:103E40000E0510910F0580910405909105050296CD
:103E50000E94BE14C00FD11FE0910405F09105052A
:103E6000D383C283C017D10768F480911205909163
:103E7000130560910405709105056E5F7F4F0E94E8
:103E80008C1417C08091140590911505609104055C
:103E9000709105056E5F7F4F0E948C14809107051D
:103EA00090910805C817D90720F4D0930805C0934E
:103EB0000705DF91CF911F910F910895CF93DF9365
:103EC000EC018F89988D0E944C14CE010E944C14F5
:103ED000DF91CF9108951CC00FB6F8940F92E09136
:103EE0005B05F0915C05C681D781CE0102960E94E8
:103EF000BE148091100581508093100580911105AA
:103F00008150809311050F900FBECE010E945E1F5D
:103F100080911105882301F7FBCF2F923F924F929A
:103F20005F926F927F928F929F92AF92BF92DF9239
:103F3000EF92FF920F931F93CF93DF933C015B01AE
:103F4000EA012901D02E4701CA010E9416147C0102
:103F5000009709F4ECC086E290E00E9416148C01F0
:103F6000009759F0FC01F08EE78A219717012C0E7B
:103F70003D1EA114B10431F41EC0C7010E944C14AF
:103F80008FEFDAC0F5018081F801818FF501808122
:103F9000882371F0E8016A96D501119681E0FD0150
:103FA0009D9199939081992319F08F5F8830B9F78B
:103FB000F80110A202C0FC01118ECD2DC43008F012
:103FC000C3E0F801C68BEE24FF246894E1F8E00E0C
:103FD000F11EC7010E946914C8010C960E94691461
:103FE000F8011187008784E090E08C1B9109958788
:103FF0008487138B028B11A212A213A214A215A202
:10400000C101B301A2010E94E714F80191838083EA
:104010008114910419F0F401118300830FB6F89410
:104020000F92809110058F5F809310058091040599
:10403000909105050097D9F51093050500930405A7
:1040400080911005813009F043C0C0E0D0E0CE017E
:10405000880F991F880F991F880F991F8C0F9D1F1C
:10406000895E9A4F0E945B142196C430D10579F77E
:10407000CBE3D5E0CE010E945B140F2EF4E4AF2E0B
:10408000F5E0BF2EF02DC5010E945B148DE495E094
:104090000E945B1486E595E00E945B14D0931505A1
:1040A000C0931405B0921305A092120511C080911F
:1040B0000C05882369F4E0910405F09105059689C3
:1040C000F8018689891720F01093050500930405EF
:1040D000809116058F5F80931605F801868990916F
:1040E0000D05981710F480930D0590E09C01220FA8
:1040F000331F220F331F220F331F820F931F895E3E
:104100009A4FB7010E946D140F900FBE80910C055D
:10411000882379F0E0910405F09105059689F8016E
:104120008689981740F40E94AD1581E005C08FEF95
:1041300003C081E001C081E0DF91CF911F910F9119
:10414000FF90EF90DF90BF90AF909F908F907F9007
:104150006F905F904F903F902F9008950F931F9313
:10416000CF93DF930FB6F8940F92009729F4C09184
:104170000405D091050501C0EC018E010E5F1F4FB3
:10418000C8010E94BE148C899D89009721F0CE0140
:104190000C960E94BE14809116058F5F80931605C1
:1041A0008091040590910505C817D90759F486E553
:1041B00095E0B8010E946D14809111058F5F809386
:1041C00011050AC080911005815080931005CE0121
:1041D0000E945E1F0E94FB1E0F900FBE80910C0577
:1041E000882349F08091040590910505C817D907E7
:1041F00011F40E94AD15DF91CF911F910F91089599
:10420000EF92FF920F938BE69FE16AED70E045E538
:1042100050E020E030E000E00F2EFFE5EF2EF5E06B
:10422000FF2EF02D0E948D1F813081F4F8948FEFC6
:104230009FEF909308058093070581E080930C051C
:1042400010920F0510920E050E9477150F91FF90A6
:10425000EF900895F89410920C050E94AC15089503
:10426000809106058F5F8093060508950FB6F89438
:104270000F9280910E0590910F050F900FBE08953B
:1042800080910E0590910F05089580911005089575
:10429000009721F4809104059091050549960895B1
:1042A000CF92DF92EF92FF920F931F93CF93DF9302
:1042B00080910605882309F098C0C0900E05D09023
:1042C0000F050894C11CD11CD0920F05C0920E0599
:1042D000C114D104B9F48091140590911505209171
:1042E0001205309113053093150520931405909312
:1042F000130580931205809109058F5F809309054E
:104300000E94FB1E8091070590910805C816D906EA
:1043100020F4FF2454C0FE2C03C0FF24EE24E394B9
:10432000E0911405F09115058081882339F48FEF11
:104330009FEF909308058093070541C0E091140515
:10434000F09115050580F681E02DC681D7818A811F
:104350009B81C816D90628F4909308058093070519
:104360002EC08E010E5F1F4FC8010E94BE148C89A3
:104370009D89009721F0CE010C960E94BE148E8973
:1043800090910D05981710F480930D0590E09C0115
:10439000220F331F220F331F220F331F820F931F51
:1043A000895E9A4FB8010E946D14E0910405F09166
:1043B00005059E898689981708F0ADCFB1CFE091A9
:1043C0000405F0910505868990E0FC01EE0FFF1FC2
:1043D000EE0FFF1FEE0FFF1F8E0F9F1FFC01E95E08
:1043E000FA4F8081823040F409C080910B058F5FC5
:1043F00080930B05FF2402C0FF24F39480910A05EB
:10440000882311F0FF24F3948F2DDF91CF911F911A
:104410000F91FF90EF90DF90CF900895DF92EF9291
:10442000FF920F931F93CF93DF930FB6F8940F92E1
:1044300080910605815080930605809106058823AA
:1044400009F05FC080911005882391F55DC0E0916F
:104450005205F0915305C681D781CE010C960E947A
:10446000BE148E010E5F1F4FC8010E94BE148E89BC
:1044700090910D05981710F480930D0590E09C0124
:10448000220F331F220F331F220F331F820F931F60
:10449000895E9A4FB8010E946D14E0910405F09175
:1044A00005059E898689981768F0D0920A050AC08A
:1044B000C0E0D0E00F2EFDE4EF2EF5E0FF2EF02D52
:1044C000DD24D394F7018081882309F6209711F029
:1044D0000E94FB1EC0910B05CC2359F001E00E9405
:1044E0005021882311F000930A05C150C1F71092A2
:1044F0000B0580910A05882331F00E94AD1581E0FB
:1045000003C080E001C080E00F900FBEDF91CF912B
:104510001F910F91FF90EF90DF900895CF93DF935D
:10452000EC01009751F00E943021CE0160E00E9422
:104530001A1F0E940E22882311F40E94AD15DF91EC
:10454000CF91089580910605882321F081E0809322
:104550000A05089510920A0520910D05822F90E01A
:10456000FC01EE0FFF1FEE0FFF1FEE0FFF1FE80F06
:10457000F91FE95EFA4F3081332389F42150822FED
:1045800090E0FC01EE0FFF1FEE0FFF1FEE0FFF1F6D
:10459000E80FF91FE95EFA4F3081332379F3DC012C
:1045A000AA0FBB1FAA0FBB1FAA0FBB1F8A0F9B1FFF
:1045B000DC01A95EBA4F1196ED91FC911297028031
:1045C000F381E02D1296FC93EE931197CD010396A3
:1045D000E817F90731F48281938112969C938E93A8
:1045E00011971196ED91FC91129786819781909386
:1045F00005058093040520930D050895CF93DF935F
:10460000EB016091040570910505645F7F4F0E9486
:104610008C14CE0161E00E941A1FDF91CF910895A2
:10462000CF93DF93EA01E0910405F09105057068EE
:10463000758764876091040570910505645F7F4FFD
:104640000E946D14CE0161E00E941A1FDF91CF918C
:1046500008950F931F93CF93DF93DC011596ED918F
:10466000FC91169706811781E8012C96CE010E94D5
:10467000BE14809106058823E9F4E8012296CE0154
:104680000E94BE14F801868990910D05981710F4C8
:1046900080930D0590E09C01220F331F220F331FE2
:1046A000220F331F820F931F895E9A4FBE010E9413
:1046B0006D1405C08DE495E0BE010E946D14E0917B
:1046C0000405F0910505D80156969C915697868968
:1046D000891720F481E080930A0501C080E0DF9112
:1046E000CF911F910F9108950F931F93CF93DF9355
:1046F0007068FC0171836083C681D7810E94BE14FB
:104700008E010E5F1F4FC8010E94BE148E899091CA
:104710000D05981710F480930D0590E09C01220F71
:10472000331F220F331F220F331F820F931F895E07
:104730009A4FB8010E946D14E0910405F0910505AF
:104740009E898689891718F481E080930A05DF9194
:10475000CF911F910F910895FC010FB6F8940F921D
:1047600080910905808380910E0590910F059283B9
:1047700081830F900FBE0895FC018091090580830D
:1047800080910E0590910F05928381830895FC011D
:10479000DB010FB6F8940F9220910E0530910F05B2
:1047A00081819281409109055081541719F0281791
:1047B0003907B0F4281B390B8D919C91119728175C
:1047C000390748F4821B930B8D939C93CF010E9471
:1047D000BC2380E006C011961C921E9281E001C0AD
:1047E00081E00F900FBE089581E080930A0508953F
:1047F00080910405909105050895E0910405F091DC
:10480000050584859585E0910405F0910505A09145
:104810000405B091050556964C91569724E030E07A
:10482000241B31093587248708950F931F93CF9355
:10483000C82F0FB6F8940F92E0910405F09105058A
:1048400081A192A1A3A1B4A10097A105B10579F41A
:10485000E0910405F091050581E085A361157105DE
:1048600031F0CB0161E00E941A1F0E94AD150F903C
:104870000FBE0FB6F8940F92E0910405F091050574
:1048800001A112A123A134A10115110521053105B2
:10489000C1F0CC2349F0E0910405F091050511A287
:1048A00012A213A214A20DC0E0910405F091050517
:1048B000D901C8010197A109B10981A392A3A3A3BA
:1048C000B4A3E0910405F091050515A20F900FBE69
:1048D000602F712F822F932FCF911F910F910895E9
:1048E0008F929F92AF92BF92EF92FF920F931F937E
:1048F000DC01CB0149015A010FB6F8940F92E09107
:104900000405F091050525A1223019F1E091040577
:10491000F091050541A152A163A174A180959095E4
:10492000A095B09584239523A623B72381A392A3B2
:10493000A3A3B4A3E0910405F091050581E085A34C
:10494000E114F10431F0C70161E00E941A1F0E94D6
:10495000AD150F900FBE0FB6F8940F92011511050B
:1049600069F0E0910405F091050581A192A1A3A150
:10497000B4A1F80180839183A283B383E0910405FD
:10498000F091050585A18230B1F4E0910405F09124
:10499000050581A192A1A3A1B4A180949094A094B3
:1049A000B09488229922AA22BB2281A292A2A3A219
:1049B000B4A281E001C080E0E0910405F09105051A
:1049C00015A20F900FBE1F910F91FF90EF90BF9017
:1049D000AF909F908F9008950F931F93CF93DF9385
:1049E000EC010FB6F8940F920115110549F089A159
:1049F0009AA1ABA1BCA1F80180839183A283B38368
:104A00003DA182E08DA32230B9F0233018F421308B
:104A100051F505C02330E1F0243029F51EC089A1ED
:104A20009AA1ABA1BCA1482B592B6A2B7B2B49A384
:104A30005AA36BA37CA317C089A19AA1ABA1BCA167
:104A40000196A11DB11D89A39AA3ABA3BCA30BC062
:104A500049A35AA36BA37CA306C0323071F149A3CA
:104A60005AA36BA37CA3313051F58E010E5F1F4F0B
:104A7000C8010E94BE148E8990910D05981710F4FC
:104A800080930D0590E09C01220F331F220F331FEE
:104A9000220F331F820F931F895E9A4FB8010E9425
:104AA0006D14E0910405F09105059E8986898917AA
:104AB00040F40E94AD1581E005C080E003C081E0B4
:104AC00001C081E00F900FBEDF91CF911F910F9138
:104AD0000895EF92FF920F931F93CF93DF93EC0112
:104AE0000115110549F089A19AA1ABA1BCA1F8015A
:104AF00080839183A283B3833DA182E08DA3223082
:104B0000B9F0233018F4213059F505C02330E1F015
:104B1000243031F51EC089A19AA1ABA1BCA1842B80
:104B2000952BA62BB72B89A39AA3ABA3BCA318C024
:104B300089A19AA1ABA1BCA10196A11DB11D89A318
:104B40009AA3ABA3BCA30CC049A35AA36BA37CA399
:104B500007C0323009F440C049A35AA36BA37CA319
:104B60003130E1F5809106058823E9F48E010E5F6E
:104B70001F4FC8010E94BE148E8990910D05981791
:104B800010F480930D0590E09C01220F331F220F3B
:104B9000331F220F331F820F931F895E9A4FB80174
:104BA0000E946D1407C0BE01645F7F4F8DE495E0E5
:104BB0000E946D14E0910405F09105059E89868997
:104BC000891770F4E114F10419F081E0F701808392
:104BD00081E080930A0505C080E003C081E001C048
:104BE00081E0DF91CF911F910F91FF90EF90089599
:104BF000EF92FF920F931F93CF93DF93EC018B0102
:104C00002DA182E08DA389A19AA1ABA1BCA101969F
:104C1000A11DB11D89A39AA3ABA3BCA32130E1F5CB
:104C200080910605882301F5EE24FF246894E1F8BD
:104C3000EC0EFD1EC7010E94BE148E8990910D05D9
:104C4000981710F480930D0590E09C01220F331FFC
:104C5000220F331F220F331F820F931F895E9A4F3B
:104C6000B7010E946D1407C0BE01645F7F4F8DE4E1
:104C700095E00E946D14E0910405F09105059E8970
:104C80008689891748F40115110519F081E0F801AA
:104C9000808381E080930A05DF91CF911F910F916E
:104CA000FF90EF900895009729F4E0910405F091AA
:104CB000050501C0FC010FB6F8940F9285A1823062
:104CC00019F415A281E001C080E00F900FBE089595
:104CD0000F931F93CF93DF93EC01098180916305BC
:104CE0008F5F80936305209711F010E001C01AE2F6
:104CF000002319F0023079F407C00E94C0068EEC40
:104D000090E00E942E0F08C00E94C00684ED90E043
:104D10000E942E0F01C01F5F8881813099F400230B
:104D200019F0023069F406C080E06AEF70E00E947A
:104D3000201009C082E06EE070E00E94201003C0E5
:104D40001F5F01C01F5F812FDF91CF911F910F91D6
:104D5000089580916305813041F488EC90E00E94D1
:104D60002E0F1092630580E00895823010F086E0E7
:104D7000089581E0089550916305513099F4E42F2E
:104D8000F0E0EE0FFF1FEE0FFF1FEE0FFF1FE455C9
:104D9000FA4F9183808365833483238381E0828308
:104DA00080E00895523010F086E0089584E0089580
:104DB000CF93DF9380916105813009F065C0109237
:104DC00061051092620520E0CCEAD5E030E0F901FF
:104DD000EE0FFF1FEE0FFF1FEE0FFF1FEC0FFD1F6B
:104DE0008281882309F448C0F901EE0FFF1FEE0FFE
:104DF000FF1FEE0FFF1FEC0FFD1F86819781AC0197
:104E00004F5F5F4F578346838381948148175907CB
:104E1000D1F4F901EE0FFF1FEE0FFF1FEE0FFF1F82
:104E2000EC0FFD1F0190F081E02D0995E0916205E6
:104E3000F0E0EE0FFF1FEE0FFF1FEE0FFF1FEC0F56
:104E4000FD1F178216828091620590E0FC01EE0F33
:104E5000FF1FEE0FFF1FEE0FFF1FEC0FFD1F258141
:104E6000222351F4FC01EE0FFF1FEE0FFF1FEE0F88
:104E7000FF1FEC0FFD1F1282209162052F5F209310
:104E80006205273008F4A2CF80E0DF91CF9108952A
:104E9000E82FF0E0EE0FFF1FEE0FFF1FEE0FFF1FDA
:104EA000E455FA4F1282089581E0809361050895D8
:104EB0000CD0E6C0DED040F0D5D030F021F45F3F1A
:104EC00019F0C7C0511110C1CAC0EBD098F3992393
:104ED000C9F35523B1F3951B550BBB27AA276217BE
:104EE0007307840738F09F5F5F4F220F331F441F03
:104EF000AA1FA9F333D00E2E3AF0E0E830D091503B
:104F00005040E695001CCAF729D0FE2F27D0660F27
:104F1000771F881FBB1F261737074807AB07B0E866
:104F200009F0BB0B802DBF01FF2793585F4F2AF07C
:104F30009E3F510568F08DC0D7C05F3FECF3983EAF
:104F4000DCF3869577956795B795F7959F5FC9F7D9
:104F5000880F911D9695879597F90895E1E0660F62
:104F6000771F881FBB1F621773078407BA0720F0DB
:104F7000621B730B840BBA0BEE1F88F7E095089544
:104F800098D088F09F5790F0B92F9927B751A0F08B
:104F9000D1F0660F771F881F991F1AF0BA95C9F7CD
:104FA00012C0B13081F09FD0B1E008959CC0672F4E
:104FB000782F8827B85F39F0B93FCCF3869577957D
:104FC0006795B395D9F73EF4909580957095619566
:104FD0007F4F8F4F9F4F0895E89409C097FB3EF491
:104FE00090958095709561957F4F8F4F9F4F992336
:104FF000A9F0F92F96E9BB279395F69587957795B4
:105000006795B795F111F8CFFAF4BB0F11F460FF73
:105010001BC06F5F7F4F8F4F9F4F16C0882311F0CB
:1050200096E911C0772321F09EE8872F762F05C0DF
:10503000662371F096E8862F70E060E02AF09A957A
:10504000660F771F881FDAF7880F9695879597F96F
:10505000089597F99F6780E870E060E008959FEFFA
:1050600080EC089500240A941616170618060906FF
:10507000089500240A9412161306140605060895CE
:10508000092E0394000C11F4882352F0BB0F40F456
:10509000BF2B11F460FF04C06F5F7F4F8F4F9F4F96
:1050A000089557FD9058440F551F59F05F3F71F018
:1050B0004795880F97FB991F61F09F3F79F087957F
:1050C0000895121613061406551FF2CF4695F1DF08
:1050D00008C0161617061806991FF1CF8695710598
:1050E000610508940895E894BB2766277727CB01CC
:1050F00097F908950BD0C4CFB5DF28F0BADF18F0C8
:10510000952309F0A6CFABCF1124EECFCADFA0F3D1
:10511000959FD1F3950F50E0551F629FF001729F4C
:10512000BB27F00DB11D639FAA27F00DB11DAA1F6B
:10513000649F6627B00DA11D661F829F2227B00DB8
:10514000A11D621F739FB00DA11D621F839FA00D43
:10515000611D221F749F3327A00D611D231F849F93
:10516000600D211D822F762F6A2F11249F575040EA
:105170008AF0E1F088234AF0EE0FFF1FBB1F661F85
:10518000771F881F91505040A9F79E3F510570F03E
:1051900060CFAACF5F3FECF3983EDCF3869577951E
:1051A0006795B795F795E7959F5FC1F7FE2B880F39
:1051B000911D9695879597F90895629FD001739FE9
:1051C000F001829FE00DF11D649FE00DF11D929FA3
:1051D000F00D839FF00D749FF00D659FF00D9927E2
:1051E000729FB00DE11DF91F639FB00DE11DF91F06
:1051F000BD01CF0111240895AA1BBB1B51E107C0BB
:10520000AA1FBB1FA617B70710F0A61BB70B881F56
:10521000991F5A95A9F780959095BC01CD010895E5
:10522000A1E21A2EAA1BBB1BFD010DC0AA1FBB1FAA
:10523000EE1FFF1FA217B307E407F50720F0A21B1C
:10524000B30BE40BF50B661F771F881F991F1A9489
:1052500069F760957095809590959B01AC01BD01B3
:10526000CF010895FB01DC0102C001900D92415075
:0A5270005040D8F70895F894FFCFDE
:10527A000A0014001E0003FCFF03E0FF031CFF02E8
:10528A0010FF5427B40A9F0A8A0A750A600A4B0A51
:10529A00360A210A070340000006034000000503FE
:1052AA0040000004034000000303400000020340E2
:1052BA00000001034000000003400000014000011B
:1052CA00B0FF031CFF02100001FFFF00FFFF0200F6
:1052DA0003060006020601060000010000000000A5
:1052EA000104000002000107000049444C45000186
:0252FA000000B2
:04000005008005E48E
:00000001FF
