:100000000C942A000C9463070C948A070C94B10793
:100010000C94D8070C94FF070C9426080C944D08F8
:100020000C9474080C949B080C94C2080C94E90876
:100030000C9410090C9437090C945E090C948509F2
:100040000C94AC090C94D3090C94FA090C94210A71
:100050000C94480A11241FBECFE5D8E0DEBFCDBF07
:1000600010E0A0E6B0E0E4EDF5E502C005900D92E9
:10007000AE3EB107D9F716E0AEEEB0E001C01D927A
:10008000A530B107E1F70E9415140C94E82A0C94EE
:1000900000000E9448020E94FD0680E008950E9430
:1000A00006078EEE90E00E941C078091EE00909172
:1000B000EF008F31910528F483E062E30E944C0247
:1000C00004C081E062E30E944C0280E0089589E66A
:1000D00090E00E94530B86E690E00E94530B83E66B
:1000E00090E00E94530B80E690E00E94530B08952D
:1000F0000895089584B7829586958695837080FFCC
:1001000009C081E060E24FEF0E94AF0B84B78F7BA4
:1001100084BF089581E060E24FEF0E94AF0B84B787
:10012000806484BF089580E060E00E94670388E7F0
:100130000E94F002089583E060E10E94180C089587
:1001400080E00E94470D8093F100882319F087E03A
:100150008093F200089583E064E00E94180C0895F3
:100160000E943D0B8091F300833020F48F5F8093D9
:10017000F30002C01092F3008091F30090E0880F2A
:10018000991FFC01E459FF4F83569A4FDC018D9172
:100190009C9111979C01220F331F820F931F918313
:1001A000808308958091F8009091F90001969093D2
:1001B000F9008093F800209170003091710082174F
:1001C000930751F483E060E10E94180C1092F9004B
:1001D0001092F8000E94080108958091F600909115
:1001E000F70001969093F7008093F60020916E003F
:1001F00030916F008217930751F483E064E00E940E
:10020000180C1092F7001092F6000E94D200089588
:100210008091F4009091F50001969093F500809301
:10022000F40020916C0030916D008217930751F417
:1002300083E064E00E94180C1092F5001092F40024
:100240000E94ED0008958091F200873011F0813016
:1002500091F483E064E04FEF0E94AF0B8091F400D3
:100260009091F50001969093F5008093F40081E061
:100270008093F20022C0843071F483E068E04FEF95
:100280000E94AF0B8091F6009091F7000196909339
:10029000F7008093F6008091F200853071F483E0DE
:1002A00060E14FEF0E94AF0B8091F8009091F90050
:1002B00001969093F9008093F8002091F40030911A
:1002C000F50080916C0090916D0028173907C9F5F1
:1002D00083E064E040E00E94AF0B81E40E945C1286
:1002E00084E40E945C1283E40E945C1280E30E941A
:1002F0005C128DE30E945C1280916C0090916D0005
:100300000E947A1281E40E945C1284E40E945C12D2
:1003100083E40E945C1280E30E945C128DE30E94E1
:100320005C128091F4009091F5000E947A128AE0AC
:100330000E945C121092F5001092F40084E0809309
:10034000F2002091F6003091F70080916E009091BC
:100350006F002817390709F045C08091F2008430FA
:1003600009F040C083E064E040E00E94AF0B83E00E
:1003700068E00E94180C80E20E945C1281E40E94F6
:100380005C1284E40E945C1283E40E945C1281E3AC
:100390000E945C128DE30E945C1280916E0090912D
:1003A0006F000E947A1281E40E945C1284E40E9431
:1003B0005C1283E40E945C1281E30E945C128DE374
:1003C0000E945C128091F6009091F7000E947A12D0
:1003D0008AE00E945C121092F7001092F60085E00D
:1003E0008093F2002091F8003091F9008091700024
:1003F000909171002817390709F042C08091F200EE
:100400008530F1F583E068E040E00E94AF0B83E0C7
:1004100060E10E94180C80E20E945C1281E40E945C
:100420005C1284E40E945C1283E40E945C1282E30A
:100430000E945C128DE30E945C128091700090918A
:1004400071000E947A1281E40E945C1284E40E948E
:100450005C1283E40E945C1282E30E945C128DE3D2
:100460000E945C128091F8009091F9000E947A122B
:100470008AE00E945C121092F9001092F80004C009
:100480008091F200863011F41092F20008950895E0
:1004900083E00E9494050895CF93C62F8230A1F087
:1004A000833020F4813009F042C005C0833051F11F
:1004B0008430E9F512C083E061E00E94C30583E067
:1004C0006C2F0E946C0634C083E062E00E94C3057A
:1004D00083E06C2F0E946C062BC081E061E00E94DB
:1004E000C30582E062E00E94C30583E06C2F0E9496
:1004F0006C0681E060E00E94C30582E060E00E943B
:10050000C30516C081E062E00E94C30582E061E09D
:100510000E94C30583E06C2F0E946C0681E060E0BE
:100520000E94C30582E060E00E94C30501C080E034
:10053000CF91089581E068E04FEF0E94AF0B6AE031
:1005400070E080E090E00E94F20681E068E040E028
:100550000E94AF0B6AE070E080E090E00E94F2063B
:10056000089584EC90E00E94530B0895CF93C82F18
:10057000C295CF70C0FF06C081E060E14FEF0E94DE
:10058000AF0B05C081E060E140E00E94AF0BC1FF0E
:1005900006C081E060E24FEF0E94AF0B05C081E032
:1005A00060E240E00E94AF0BC2FF06C081E060E461
:1005B0004FEF0E94AF0B05C081E060E440E00E9475
:1005C000AF0BC87031F081E060E84FEF0E94AF0BD5
:1005D00005C081E060E840E00E94AF0BCF91089534
:1005E000CF93C82F81E062E04FEF0E94AF0B8C2FBA
:1005F0000E94B6020E949A028C2F8295807F0E94F0
:10060000B6020E949A02CF910895CF93C82F81E03D
:1006100062E040E00E94AF0B8C2F0E94B6020E9465
:100620009A028C2F8295807F0E94B6020E949A02C5
:1006300061E070E080E090E00E94DC06CF910895D8
:1006400064E170E080E090E00E94DC0680E00E94BF
:10065000B60281E062E040E00E94AF0B81E064E01E
:1006600040E00E94AF0B81E068E040E00E94AF0BE9
:1006700088E20E94050388E30E94050382E30E944A
:1006800005038EE00E94050381E00E9405036AE0F5
:1006900070E080E090E00E94DC0686E00E940503A6
:1006A0008CE00E940503089581E00E9405030895EF
:1006B000CF93DF93EC018881882331F021960E944B
:1006C000F00289918823D9F7DF91CF9108956230A4
:1006D00031F0633031F0613029F4805C03C08C5E0E
:1006E00001C08C5A80680E94050308950F931F93E0
:1006F000CF93DF934017510762077307C0F4D80107
:100700001196A80FB91FFC01E40FF51F4F5F5F4F53
:100710006F4F7F4F0150104020403040C081DE912C
:10072000D193CC93401751076207730778F3DF9199
:10073000CF911F910F9108954F925F926F927F9288
:100740008F929F92AF92BF92CF92DF92EF92FF92E1
:100750000F931F93CF93DF936B017C012A01480114
:100760005901D901C8010297A109B1098F31910539
:10077000A105B10508F049C09601DD201CF43095B3
:1007800021953F4F2115310539F1E20101E010E0DB
:100790006901EE24D7FCE094FE2CC701B601A50147
:1007A00094010E94BD2A6A30710524F0695C688357
:1007B000380103C0605D68833801C701B601A50137
:1007C00094010E94BD2A0F5F1F4F2196211531050C
:1007D000F9F66114710431F480E3F2018083662438
:1007E00077246394F201E60DF71D108208946108E6
:1007F00071088301222717FD2095322FC20140E0A6
:1008000050E0BA010E9476032C01842D952DDF91D2
:10081000CF911F910F91FF90EF90DF90CF90BF90FD
:10082000AF909F908F907F906F905F904F900895C2
:10083000813049F0813028F0823039F0833041F442
:1008400006C06ABB089567BB089564BB089561BB89
:100850000895813049F0813028F0823039F08330BA
:1008600041F406C06BBB089568BB089565BB08954D
:1008700062BB0895813059F0813028F0823059F000
:10088000833081F40CC08BB380958BBB089588B303
:10089000809588BB089585B3809585BB089582B304
:1008A000809582BB0895813049F0813028F08230F4
:1008B00039F0833049F406C08BB3089588B30895A6
:1008C00085B3089582B3089580E00895442319F014
:1008D0004F3FD1F521C0813069F0813028F082305E
:1008E00079F08330C9F412C08AB3962F909589238A
:1008F0008ABB1BC087B3962F9095892387BB19C0ED
:1009000084B3962F9095892384BB17C081B3962F0B
:100910009095892381BB15C0813059F0813028F032
:10092000823059F0833081F40CC08AB3682B6ABBE3
:10093000089587B3682B67BB089584B3682B64BBA5
:10094000089581B3682B61BB0895442319F04F3F8C
:10095000B1F51DC0813061F0813028F0823069F03E
:10096000833069F50FC08BB3609568236BBB089526
:1009700088B36095682368BB089585B36095682344
:1009800065BB089582B36095682362BB089581308A
:1009900059F0813028F0823059F0833081F40CC056
:1009A0008BB3682B6BBB089588B3682B68BB089525
:1009B00085B3682B65BB089582B3682B62BB08952D
:1009C000813059F0813028F0823059F0833081F441
:1009D0000CC08BB368276BBB089588B3682768BBCE
:1009E000089585B3682765BB089582B3682762BB05
:1009F0000895813051F0813028F0823049F0833001
:100A000069F409C089B368230AC086B3682307C0A4
:100A100083B3682304C080B3682301C060E081E031
:100A2000662309F480E00895813069F0813028F070
:100A3000823079F08330C1F412C081E060E14FEF81
:100A40000E946604089581E060E24FEF0E94660410
:100A5000089581E060E44FEF0E946604089581E00C
:100A600060E84FEF0E9466040895813069F081309C
:100A700028F0823079F08330C1F412C081E060E167
:100A80004FEF0E94A504089581E060E24FEF0E94BD
:100A9000A504089581E060E44FEF0E94A504089545
:100AA00081E060E84FEF0E94A5040895813069F06D
:100AB000813028F0823079F08330C1F412C081E0B7
:100AC00060E140E00E94A504089581E060E240E01A
:100AD0000E94A504089581E060E440E00E94A5041E
:100AE000089581E060E840E00E94A5040895813007
:100AF00061F0813028F0823069F08330A1F40FC0BA
:100B000081E060E10E94E004089581E060E20E94DB
:100B1000E004089581E060E40E94E004089581E02B
:100B200060E80E94E0040895823079F08330C9F0D3
:100B3000813039F58093FA0082ED90E00E948E0DAD
:100B400088E790E00E94530B089582E08093FA00BA
:100B500080ED90E00E948E0D85E790E00E94530B9F
:100B6000089583E08093FA0082ED90E00E948E0D5C
:100B700080ED90E00E948E0D82E790E00E94530B82
:100B8000089581E00895823079F1833009F455C0E9
:100B9000813009F099C0613031F06130D0F06230BD
:100BA00009F094C00BC083E064E04FEF0E94AF0BEC
:100BB00083E068E040E00E94AF0B089583E068E0C6
:100BC0004FEF0E94AF0B83E064E040E00E94AF0B68
:100BD000089583E064E040E00E94AF0B83E068E0AA
:100BE00040E00E94AF0B0895613031F06130D0F0E9
:100BF000623009F06DC00BC083E060E84FEF0E94E7
:100C0000AF0B83E060E440E00E94AF0B089583E007
:100C100060E44FEF0E94AF0B83E060E840E00E9489
:100C2000AF0B089583E060E440E00E94AF0B83E0E7
:100C300060E840E00E94AF0B0895613031F0613010
:100C400070F1623009F046C015C083E064E04FEFF8
:100C50000E94AF0B83E068E040E00E94AF0B83E0AE
:100C600060E440E00E94AF0B83E060E84FEF0E9439
:100C7000AF0B089583E064E040E00E94AF0B83E097
:100C800068E04FEF0E94AF0B83E060E44FEF0E94FB
:100C9000AF0B83E060E840E00E94AF0B089583E073
:100CA00064E040E00E94AF0B83E060E440E00E941B
:100CB000AF0B83E068E040E00E94AF0B83E060E8A8
:100CC00040E00E94AF0B089580E0089580E0089511
:100CD00080E0089581E00895823069F08330A9F0C2
:100CE0008130F1F48093FB002EE130E040E050E0F1
:100CF0000E94B80D089582E08093FB002EE130E061
:100D000040E050E00E94B80D089583E08093FB001E
:100D100082E02EE130E040E050E00E94B80D0895FE
:100D200081E00895823079F08330C1F0813011F58F
:100D30008091FA00813001F52EE130E040E050E092
:100D40000E94B80D08958091FA008230B9F42EE126
:100D500030E040E050E00E94B80D08958091FA0024
:100D6000833071F482E02EE130E040E050E00E94F8
:100D7000B80D089581E0089581E0089581E0089517
:100D800081E00895813019F0823049F404C081E097
:100D90000E94890F089582E00E94890F089581E0E2
:100DA00008959091FA00981721F481E0FB01808367
:100DB0000895FB0110820895DC01CB010097A10585
:100DC000B10561F408952150F1F7315011F0242F4D
:100DD000FACF0197A109B10919F4089555E14FEF30
:100DE000352FF5CFDC01CB010097A105B10521F02E
:100DF0000197A109B109E1F708958BE790E00E94FE
:100E0000530B8AEC90E00E94370C089582E090E04A
:100E100060E170E04FEF50E00E94AF0B80E06AE0CD
:100E200070E00E94941082E090E060E170E040E0A9
:100E300050E00E94AF0B08950F931F93CF93DF9361
:100E400000D000D0CDB7DEB78C0182E061E0AE010A
:100E50004F5F5F4F0E94680C29813A81F80131830E
:100E600020830F900F900F900F90DF91CF911F91E3
:100E70000F9108958FB780688FBF0895BA98C29A6E
:100E80008BB780628BBF84B7806484BF08958B98D2
:100E9000939A8BB780688BBF85B7846085BF85B711
:100EA000877F85BF08958A98929A8BB780648BBF9D
:100EB00085B7816085BF85B78D7F85BF08958FB762
:100EC0008F778FBF08951F920F920FB60F92112444
:100ED0002F933F934F935F936F937F938F939F9342
:100EE000AF93BF93EF93FF93E0918D05F0918E0543
:100EF0000995FF91EF91BF91AF919F918F917F9154
:100F00006F915F914F913F912F910F900FBE0F9076
:100F10001F9018951F920F920FB60F9211242F93C6
:100F20003F934F935F936F937F938F939F93AF9371
:100F3000BF93EF93FF93E0919505F0919605099586
:100F4000FF91EF91BF91AF919F918F917F916F91A1
:100F50005F914F913F912F910F900FBE0F901F9077
:100F600018951F920F920FB60F9211242F933F9353
:100F70004F935F936F937F938F939F93AF93BF93A1
:100F8000EF93FF93E0918505F09186050995FF9118
:100F9000EF91BF91AF919F918F917F916F915F91F1
:100FA0004F913F912F910F900FBE0F901F9018956A
:100FB0001F920F920FB60F9211242F933F934F93CE
:100FC0005F936F937F938F939F93AF93BF93EF93B1
:100FD000FF93E0919B05F0919C050995FF91EF919E
:100FE000BF91AF919F918F917F916F915F914F9141
:100FF0003F912F910F900FBE0F901F9018951F9249
:101000000F920FB60F9211242F933F934F935F933C
:101010006F937F938F939F93AF93BF93EF93FF93C0
:10102000E0917B05F0917C050995FF91EF91BF91CF
:10103000AF919F918F917F916F915F914F913F9170
:101040002F910F900FBE0F901F9018951F920F9227
:101050000FB60F9211242F933F934F935F936F938B
:101060007F938F939F93AF93BF93EF93FF93E09101
:101070009705F09198050995FF91EF91BF91AF9178
:101080009F918F917F916F915F914F913F912F91A0
:101090000F900FBE0F901F9018951F920F920FB6D2
:1010A0000F9211242F933F934F935F936F937F93EE
:1010B0008F939F93AF93BF93EF93FF93E09181053D
:1010C000F09182050995FF91EF91BF91AF919F91AA
:1010D0008F917F916F915F914F913F912F910F90E1
:1010E0000FBE0F901F9018951F920F920FB60F9280
:1010F00011242F933F934F935F936F937F938F931D
:101100009F93AF93BF93EF93FF93E0917F05F0918F
:1011100080050995FF91EF91BF91AF919F918F91BC
:101120007F916F915F914F913F912F910F900FBEE3
:101130000F901F9018951F920F920FB60F921124C7
:101140002F933F934F935F936F937F938F939F93CF
:10115000AF93BF93EF93FF93E0919905F0919A05B8
:101160000995FF91EF91BF91AF919F918F917F91E1
:101170006F915F914F913F912F910F900FBE0F9004
:101180001F9018951F920F920FB60F9211242F9354
:101190003F934F935F936F937F938F939F93AF93FF
:1011A000BF93EF93FF93E0919105F091920509951C
:1011B000FF91EF91BF91AF919F918F917F916F912F
:1011C0005F914F913F912F910F900FBE0F901F9005
:1011D00018951F920F920FB60F9211242F933F93E1
:1011E0004F935F936F937F938F939F93AF93BF932F
:1011F000EF93FF93E0917E00F0917F000995FF91BE
:10120000EF91BF91AF919F918F917F916F915F917E
:101210004F913F912F910F900FBE0F901F901895F7
:101220001F920F920FB60F9211242F933F934F935B
:101230005F936F937F938F939F93AF93BF93EF933E
:10124000FF93E0918305F09184050995FF91EF915B
:10125000BF91AF919F918F917F916F915F914F91CE
:101260003F912F910F900FBE0F901F9018951F92D6
:101270000F920FB60F9211242F933F934F935F93CA
:101280006F937F938F939F93AF93BF93EF93FF934E
:10129000E0917905F0917A050995FF91EF91BF9161
:1012A000AF919F918F917F916F915F914F913F91FE
:1012B0002F910F900FBE0F901F9018951F920F92B5
:1012C0000FB60F9211242F933F934F935F936F9319
:1012D0007F938F939F93AF93BF93EF93FF93E0918F
:1012E0009305F09194050995FF91EF91BF91AF910E
:1012F0009F918F917F916F915F914F913F912F912E
:101300000F900FBE0F901F9018951F920F920FB65F
:101310000F9211242F933F934F935F936F937F937B
:101320008F939F93AF93BF93EF93FF93E0918F05BC
:10133000F09190050995FF91EF91BF91AF919F9129
:101340008F917F916F915F914F913F912F910F906E
:101350000FBE0F901F9018951F920F920FB60F920D
:1013600011242F933F934F935F936F937F938F93AA
:101370009F93AF93BF93EF93FF93E0918905F09113
:101380008A050995FF91EF91BF91AF919F918F9140
:101390007F916F915F914F913F912F910F900FBE71
:1013A0000F901F9018951F920F920FB60F92112455
:1013B0002F933F934F935F936F937F938F939F935D
:1013C000AF93BF93EF93FF93E0918B05F0918C0562
:1013D0000995FF91EF91BF91AF919F918F917F916F
:1013E0006F915F914F913F912F910F900FBE0F9092
:1013F0001F9018951F920F920FB60F9211242F93E2
:101400003F934F935F936F937F938F939F93AF938C
:10141000BF93EF93FF93E0918705F09188050995BD
:10142000FF91EF91BF91AF919F918F917F916F91BC
:101430005F914F913F912F910F900FBE0F901F9092
:1014400018951F920F920FB60F9211242F933F936E
:101450004F935F936F937F938F939F93AF93BF93BC
:10146000EF93FF93E0917705F09178050995FF914F
:10147000EF91BF91AF919F918F917F916F915F910C
:101480004F913F912F910F900FBE0F901F90189585
:101490001F920F920FB60F9211242F933F934F93E9
:1014A0005F936F937F938F939F93AF93BF93EF93CC
:1014B000FF93E0917D05F0917E050995FF91EF91F5
:1014C000BF91AF919F918F917F916F915F914F915C
:1014D0003F912F910F900FBE0F901F901895089578
:1014E000CF93DF93EC0197B18A81892B87B98881EB
:1014F0008F3F39F087B1807F87B997B18881892B79
:1015000087B997B18B81892B87B90E943A0796B129
:101510008C81892B86B98FE69AE090938A05809317
:10152000890596B18981892B86B9379A369A80E0E8
:10153000DF91CF91089580E990E00E94700A369A79
:1015400086B184FFFDCF24B135B185B196B1982F16
:101550008827820F911D9093AC058093AB05089569
:1015600085E990E00E94700A369A86B184FFFDCF2B
:1015700024B135B185B196B1982F8827820F911D7E
:101580009093AA058093A90508958AE990E00E94A6
:10159000700A369A86B184FFFDCF24B135B185B18A
:1015A00096B1982F8827820F911D9093A80580935C
:1015B000A70508958FE990E00E94700A369A86B1D7
:1015C00084FFFDCF24B135B185B196B1982F88271E
:1015D000820F911D9093A6058093A505089584EA36
:1015E00090E00E94700A369A86B184FFFDCF24B144
:1015F00035B185B196B1982F8827820F911D9093B0
:10160000A4058093A305089589EA90E00E94700ADA
:10161000369A86B184FFFDCF85B196B11092A105AF
:101620008093A20508958EEA90E00E94700A369A8F
:1016300086B184FFFDCF24B135B185B196B1982F25
:101640008827820F911D9093A00580939F05089590
:1016500083EB90E00E94700A369A86B184FFFDCF3A
:1016600024B135B185B196B1982F8827820F911D8D
:1016700090939E0580939D050895E091FC00E830CD
:1016800078F4F0E0EE0FFF1FE058FF4F0190F0817B
:10169000E02D09958091FC008F5F8093FC000895F8
:1016A0001092FC000895FC01009709F450C082815B
:1016B000882321F08F3F09F04CC027C08081813002
:1016C00079F0813030F0823091F0833009F043C0FE
:1016D00015C09AB38181809589238ABB80E00895E3
:1016E00097B381818095892387BB80E0089594B367
:1016F00081818095892384BB80E0089591B38181A5
:101700008095892381BB80E008958081813069F0D4
:10171000813028F0823079F08330F9F412C09AB326
:101720008181892B8ABB80E0089597B38181892BC1
:1017300087BB80E0089594B38181892B84BB80E0CE
:10174000089591B38181892B81BB80E0089586E162
:10175000089581E0089580E0089580E0089544238D
:1017600021F04F3F09F03FC021C0813069F0813046
:1017700028F0823079F08330C1F512C08BB36095C8
:1017800068236BBB80E0089588B36095682368BBCD
:1017900080E0089585B36095682365BB80E0089577
:1017A00082B36095682362BB80E00895813061F068
:1017B000813028F0823069F08330C9F40FC08BB3D8
:1017C000682B6BBB80E0089588B3682B68BB80E012
:1017D000089585B3682B65BB80E0089582B3682BBC
:1017E00062BB80E0089581E0089580E0089580E084
:1017F0000895FA01813059F0813028F0823059F093
:10180000833081F40CC089B3682360830BC086B336
:101810006823608307C083B36823608303C080B3F9
:10182000682360838081882311F08FEF808308957F
:10183000813061F0813028F0823069F08330A9F482
:101840000FC08BB368276BBB80E0089588B368270F
:1018500068BB80E0089585B3682765BB80E0089584
:1018600082B3682762BB80E0089581E00895CF933A
:10187000DF93EC010E943A078881813041F081308A
:1018800018F0823049F406C00E94530705C00E9438
:10189000470702C00E943E078981813051F08130A4
:1018A00018F0823089F40CC085E083BF81E089BFE5
:1018B0000BC085E090E09FBD8EBD84E089BF04C071
:1018C00087E085BD84E089BF80E0DF91CF910895F6
:1018D0000F931F93813049F0813018F0823071F4FA
:1018E0000AC083B7836083BF09C08EB59FB585608A
:1018F0009FBD8EBD03C085B5876085BD613001F198
:10190000613018F06230D1F52AC0809101019091C8
:101910000201A0910301B09104010091FD0010911A
:10192000FE002091FF0030910001800F911FA21F47
:10193000B31FFA0180839183A283B38380E01FC029
:101940008091010190910201A0910301B0910401E5
:10195000FA0180839183A283B38380E010C08091D9
:10196000FD009091FE00A091FF00B0910001FA01EE
:1019700080839183A283B38380E001C081E01F91C3
:101980000F910895CF93C2B760910D0170E080E090
:1019900090E02FEF30E040E050E00E948A2ADC0126
:1019A000CB018C0F911DA11DB11D80930E01909351
:1019B0000F01A0931001B093110110920D0184B793
:1019C000829586958695837080FF30C080910E0148
:1019D00090910F01A0911001B09111018093090124
:1019E00090930A01A0930B01B0930C01809109011F
:1019F00090910A01A0910B01B0910C014091050159
:101A0000509106016091070170910801841B950BAC
:101A1000A60BB70B8093FD009093FE00A093FF00F0
:101A2000B093000184B78F7B84BF2FC080910E01DB
:101A300090910F01A0911001B091110180930501C7
:101A400090930601A0930701B093080180910501CE
:101A500090910601A0910701B09108014091090100
:101A600050910A0160910B0170910C01841B950B40
:101A7000A60BB70B8093010190930201A093030181
:101A8000B093040184B7806484BFCF9108958130FE
:101A9000C1F0813018F08230D1F526C082E061E0DB
:101AA00042E151E00E94F90B80911201813081F5F1
:101AB000909115019F5F90931501933370F580E02D
:101AC000089581E064E043E151E00E94F90B8091C8
:101AD00013018130F9F4909115019F5F90931501E6
:101AE0009333D8F480E0089580E064E044E151E06D
:101AF0000E94F90B80911401813071F490911601CC
:101B00009F5F90931601953140F480E00895089509
:101B100080E0089580E0089580E00895FC018081D0
:101B2000813061F0813028F0823081F08330D9F447
:101B300015C083B7886683BF80E016C08EB59FB599
:101B40008062916A9FBD8EBD80E00EC08EB59FB54C
:101B50008062916A9FBD8EBD80E006C085B58866B3
:101B600085BD80E001C081E09181909318010895C6
:101B7000CF92DF92EF92FF920F931F9389019A0108
:101B80000F2EFEEACF2EF0EFDF2EFFEFEF2EFFEF4E
:101B9000FF2EF02DC00ED11EE21EF31E9BE3C916D0
:101BA0009BE6D90690E0E90690E0F90618F4109259
:101BB0001801A2C00F2EFBE2CF2EFCEFDF2EFFEFAD
:101BC000EF2EFFEFFF2EF02DC00ED11EE21EF31EF2
:101BD0009DE7C9169BE0D90690E0E90690E0F9067A
:101BE00020F491E090931801A5C00F2EF5E1CF2EBF
:101BF000FEEFDF2EFFEFEF2EFFEFFF2EF02DC00EDA
:101C0000D11EE21EF31E9AEEC91691E0D90690E0AD
:101C1000E90690E0F90620F492E090931801A1C043
:101C20000F2EFAE0CF2EFFEFDF2EFFEFEF2EFFEFAC
:101C3000FF2EF02DC00ED11EE21EF31E95EFC91629
:101C4000D104E104F10420F493E09093180190C0D2
:101C50000F2EF5E8CF2EFFEFDF2EFFEFEF2EFFEF79
:101C6000FF2EF02DC00ED11EE21EF31E9BE7C916FB
:101C7000D104E104F10420F494E090931801A5C08C
:101C80000F2EF0EECF2EFFEFDF2EFFEFEF2EFFEF48
:101C9000FF2EF02DC00ED11EE21EF31E9BE5C916CD
:101CA000D104E104F10420F495E09093180177C089
:101CB00001501040204030400F3111052105310501
:101CC00020F496E09093180186C09091180193300B
:101CD00009F44EC0943030F4913061F1923008F044
:101CE00040C00AC0953009F45AC0953008F46DC060
:101CF000963009F08DC06FC0813061F0813030F0D6
:101D0000823071F0833009F083C010C083B78160E6
:101D100083BF88C08EB59FB581609FBD8EBD98C0C2
:101D20008EB59FB581609FBD8EBDADC085B581600C
:101D300085BDC4C0833018F4813048F404C08330BA
:101D400009F066C00AC083B7826083BF6BC02EB53E
:101D50003FB522603FBD2EBD5BC085B5826085BDAD
:101D6000ADC0833009F054C085B5836085BDA6C081
:101D7000833018F4813048F404C0833009F048C03F
:101D80000AC083B7836083BF4DC02EB53FB52360C3
:101D90003FBD2EBD3DC085B5846085BD8FC08330FD
:101DA00018F4813040F403C0833091F50AC083B742
:101DB000836083BF37C02EB53FB523603FBD2EBDC6
:101DC00027C085B5846085BD79C0833009F585B5A8
:101DD000856085BD73C0813059F0813028F0823034
:101DE00069F08330A9F410C083B7856083BF1AC03F
:101DF0008EB59FB581609FBD8EBD2AC08EB59FB543
:101E000085609FBD8EBD3FC085B5876085BD56C0CE
:101E10008130F1F0813030F08230A9F1833009F067
:101E200063C04CC070E080E090E00E94992920E0FF
:101E300030E048EC52E40E94052920E030E04FE712
:101E400053E40E94272A0E946D296CBF80E04DC098
:101E500070E080E090E00E94992920E030E048ECBA
:101E600052E40E94052920E030E04FE753E40E944D
:101E7000272A0E946D29DC01CB019BBD8ABD99BD3B
:101E800088BD80E032C070E080E090E00E94992937
:101E900020E030E048EC52E40E94052920E030E0E8
:101EA0004FE753E40E94272A0E946D29DC01CB01F1
:101EB0009BBD8ABD99BD88BD80E017C070E080E001
:101EC00090E00E94992920E030E048EC52E40E9422
:101ED000052920E030E04FE753E40E94272A0E94C2
:101EE0006D2963BD80E001C081E091E0909319010C
:101EF0001F910F91FF90EF90DF90CF9008959091F8
:101F00001901913021F40E94B80D80E0089581E01C
:101F10000895833018F4813048F403C0833081F48D
:101F20000AC083B7887F83BF80E0089583B7887F26
:101F300083BF80E0089585B5887F85BD80E00895E2
:101F400081E008951F93CF93DF93EC018B81809301
:101F50001A01209711F010E001C010E28881813051
:101F600009F44CC0813020F0823009F0D8C093C011
:101F700083B783BF89818130B9F0813018F0823016
:101F8000E1F526C08A81882319F0813059F404C014
:101F900089B78C7F89BF32C00E943A0789B78160B8
:101FA00089BF2CC01F5F2AC083B78D6083BF8A8121
:101FB000882319F0813059F404C089B78C7F89BF18
:101FC00007C00E943A0789B7816089BF01C01F5FBF
:101FD00083B78C6083BF8A81882319F0813059F4DC
:101FE00004C089B78C7F89BF09C00E943A0789B7AE
:101FF000816089BF03C01F5F01C01F5F898181307D
:10200000D1F0813020F0823009F043C02BC01FBCDA
:102010001EBC8A81882319F0813059F404C089B725
:10202000837C89BF7CC00E943A0789B7846089BFDE
:1020300076C01F5F74C08EB59FB587609FBD8EBD93
:102040008A81882319F0813059F404C089B7837CD0
:1020500089BF65C00E943A0789B7846089BF5FC0A5
:102060001F5F5DC08EB59FB586609FBD8EBD8A81A6
:10207000882319F0813059F404C089B7837C89BF63
:102080004EC00E943A0789B7846089BF48C01F5F6D
:1020900046C01F5F44C085B585BD8981882319F07E
:1020A0008130E1F512C08A81882319F0813059F41A
:1020B00004C089B78F7389BF32C00E943A0789B7BD
:1020C000806C89BF2CC01F5F2AC082B5886082BD2A
:1020D0008A81813049F0813018F08230F9F40AC0E9
:1020E00089B78F7389BF1AC00E943A0789B7806C7D
:1020F00089BF14C082B5886082BD8A81882319F0A7
:10210000813059F404C089B78F7389BF07C00E941A
:102110003A0789B7806C89BF01C01F5F1F5F812F9D
:10212000DF91CF911F910895813009F44FC0813024
:1021300020F0823009F0F3C097C080911A018430FA
:1021400021F1853030F4813051F0823009F0E9C05E
:1021500011C0863029F1873009F0E3C02CC06F3FF1
:10216000710508F0E0C083B7816083BF609562BFEE
:1021700080E008956F3F710508F0D7C083B7826093
:1021800083BF609562BF80E008956F3F710508F0DE
:10219000CEC083B7836083BF609562BF80E008953F
:1021A0006F3F710508F0C5C083B7846083BF609539
:1021B00062BF80E008956F3F710508F0BCC083B72F
:1021C000856083BF609562BF80E0089580911A01A9
:1021D000843031F1853030F4813051F0823009F0B3
:1021E000ACC012C0863041F1873009F0A6C030C0C3
:1021F0008EB59FB581609FBD8EBD709561957F4FF7
:102200007DBD6CBD80E008958EB59FB582609FBD99
:102210008EBD709561957F4F7DBD6CBD80E008954A
:102220008EB59FB583609FBD8EBD709561957F4FC4
:102230007DBD6CBD80E008958EB59FB584609FBD67
:102240008EBD709561957F4F7DBD6CBD80E008951A
:102250008EB59FB585609FBD8EBD709561957F4F92
:102260007DBD6CBD80E0089580911A01843079F1C4
:10227000853040F48230C9F0833010F5813009F0A8
:102280005EC008C08630B9F1863058F1873009F059
:1022900056C03BC06F3F710508F053C085B58160E3
:1022A00085BD609564BD80E008956F3F710508F0BD
:1022B0004AC085B5826085BD609564BD80E00895A3
:1022C00085B5836085BD609564BD80E008956F3FEE
:1022D0007105D8F585B5846085BD609564BD80E0E5
:1022E00008956F3F710598F585B5856085BD60954A
:1022F00064BD80E008956F3F710558F585B586602F
:1023000085BD609564BD80E008956F3F710518F547
:1023100085B5876085BD609564BD80E0089581E0E6
:10232000089580E0089580E0089580E0089580E0B9
:10233000089580E0089580E0089580E0089580E0A9
:10234000089580E0089580E0089580E0089580E099
:10235000089580E0089580E00895813051F0813043
:1023600018F0823091F40CC083B7887F83BF80E07F
:1023700008958EB59FB5887F9FBD8EBD80E008957E
:1023800085B5887F85BD80E0089581E0089581301E
:1023900059F0813018F08230C9F40EC088B78170CE
:1023A000FB01808380E0089588B7869586958170CB
:1023B000FB01808380E0089588B782958695869595
:1023C00083708170FB01808380E0089581E008952F
:1023D000FB01813051F0813018F0823089F40BC05C
:1023E00082B78083118280E008958CB59DB591837A
:1023F000808380E0089584B58083118280E0089511
:1024000081E008950F93833371F0843318F4893198
:1024100079F40CC0843421F0873651F489B908C0AE
:1024200084E489B905C083E389B902C089E189B927
:10243000662331F0613011F080E003C088E801C00C
:1024400080E82230A1F0233028F4222341F021300B
:10245000B9F409C0233079F0243091F40FC08068BA
:10246000897F52980DC082688B7F529809C0897706
:102470008468529805C08668529802C08668529A4D
:10248000002319F0013029F403C080688F7B01C05C
:10249000806C413041F0413018F0423041F406C0C8
:1024A00080688F7C04C08F74806A01C0806B80BD9F
:1024B000539A549A0F9108955D9BFECF8CB908955D
:1024C0005F9BFECF8CB108950E943A07579A569AA7
:1024D0006F9A08958CB18093AD0508958091AD05F4
:1024E0008CB908958093AD0508958CB908955398DB
:1024F00054980895EF92FF920F931F93CF93DF9319
:10250000E4E2F1E00F2EFBEFEF2EFFEFFF2EF02DB8
:10251000EE0EFF1EEF0124972AE030E0B9010E9481
:10252000A92A8293862F972FEC17FD07B9F760939E
:102530001F010FE111E0E7012596F80181918F015C
:10254000805D0E945C120C171D07B9F7DF91CF91D7
:102550001F910F91FF90EF90089582E40E945C120A
:1025600088B390E00E947A1283E40E945C1285B3E3
:1025700090E00E947A1284E40E945C1282B390E0A0
:102580000E947A12089580912A018150823020F4AD
:1025900081E060E10E94180C089581E062E046E26B
:1025A00051E00E94F90B81E064E047E251E00E94B3
:1025B000F90B83E064E048E251E00E94F90B83E00C
:1025C00068E049E251E00E94F90B809126018F3FBB
:1025D00089F480912701882369F4809129018F3F34
:1025E00049F4809128018F3F29F480912A018823A2
:1025F00049F01FC080912801882321F08091290192
:102600008823B9F481E060E14FEF0E94AF0B81E0D5
:1026100060E240E00E94AF0B81E060E440E00E9495
:10262000AF0B81E060E840E00E94AF0B81E0809357
:102630002A0180912601882339F480912A01813072
:1026400019F482E080932A01809129018F3F29F5B6
:10265000809128018F3F09F5809127018823E9F4B3
:10266000809126018F3FC9F480912A018230A9F41C
:1026700081E060E140E00E94AF0B81E060E24FEF5B
:102680000E94AF0B81E060E840E00E94AF0B81E068
:1026900060E44FEF0E94AF0B05C080912A01835088
:1026A000823060F4809124019091250101969093ED
:1026B00025018093240184E080932A0180912901DF
:1026C0008F3F81F5809128018F3F61F5809127012F
:1026D000882341F580912A01843021F580912401DD
:1026E0009091250122E088359207E0F010922501B3
:1026F0001092240181E060E140E00E94AF0B81E094
:1027000060E24FEF0E94AF0B81E060E440E00E9486
:10271000AF0B81E060E84FEF0E94AF0B85E0809344
:102720002A0106C080912A01853011F0833011F50D
:10273000809127018F3F41F080912801882321F06B
:10274000809129018823B1F481E060E140E00E949A
:10275000AF0B81E060E240E00E94AF0B81E060E4FB
:1027600040E00E94AF0B81E060E840E00E94AF0BC8
:1027700010922A0108950F9387E660E040E023E07D
:1027800000E00E94021284EC90E00E94530B81EC66
:1027900090E00E94530B8EEB90E00E94530B8BEE67
:1027A00090E00E94152880EB90E061E041E025E098
:1027B00030E00E94682883E291E061E044E021E09B
:1027C00030E00E94682880EA90E061E043E022E087
:1027D00030E00E9468280F9108950F9387E660E02B
:1027E00040E023E000E00E9402120E9467008BEEAE
:1027F00090E00E9415288DEC92E161E041E025E037
:1028000030E00E94682883EC92E161E042E024E637
:1028100030E00E9468288DEA92E161E043E028EE12
:1028200033E00E9468280F9108950E94ED130E94E2
:102830008528FDCF442341F46823792381E0611585
:10284000710551F480E008959B012823392381E02C
:102850006217730709F080E00895CF93DF938BE050
:1028600090E00E94C315EC01009731F0FC01119239
:102870001192CF010E9408168C2F9D2FDF91CF91CE
:102880000895AF92BF92CF92DF92EF92FF920F9393
:102890001F93CF93DF935C016B01E42EF22E0E9415
:1028A000DD22F501C081D181CE01B6014F2D0E94FC
:1028B0001A14882351F0EE2001F1C094D094CC2258
:1028C000DD22F501D182C08218C001151105A9F0E1
:1028D000EE2019F460E070E002C060E071E0F110F9
:1028E00074606C297D29C5010296A8010E94BD244F
:1028F0000E94BB23882339F404C00E94BB23CE016D
:1029000021C00E945A170E94AA25EC0191FD18C00F
:102910000FB6F8940F92F501C081D181CE01B601B6
:102920004F2D0E941A14882349F0EE2039F0C094EC
:10293000D094CC22DD22F501D182C0820F900FBE4F
:10294000CE019070DF91CF911F910F91FF90EF908A
:10295000DF90CF90BF90AF900895FC010FB6F89430
:102960000F9280819181609570956823792371839E
:1029700060830F900FBE0895FC01808191810895BE
:10298000AF92BF92CF92DF92EF92FF920F931F937D
:10299000CF93DF938C01EB010F2EF5E0CF2EDD24DA
:1029A000F02DC80ED91E0E94DD22D8011796ED9198
:1029B000FC9118978D919C9111978C2B9D2B1196C2
:1029C0009C938E93CE16DF06C1F1AA24BB24FF246C
:1029D000F394EE2401C0FE01C281D38180819181F4
:1029E000BC0160709C01307092FD0BC0D8018D91CC
:1029F0009C911197822393234F2D009769F44E2DBC
:102A00000BC0D8018D919C911197822393234F2D58
:102A10002817390709F04E2D442359F070FF02C0E2
:102A2000A22AB32AD8016D917C917260CF010E94D5
:102A30002125CC16DD0679F602C0AA24BB24C501E7
:102A400080959095F801A080B180A822B922B1822A
:102A5000A0820E94BB23D8018C9111969C91119762
:102A6000DF91CF911F910F91FF90EF90DF90CF906A
:102A7000BF90AF900895AF92BF92CF92DF92EF9246
:102A8000FF920F931F93CF93DF936C01EB017A01B9
:102A900059010E94DD22F60100811181C601BE01AB
:102AA0000E94C014C02BD12BC7018C239D238E15EF
:102AB0009F0551F480959095F60120813181822304
:102AC00093239183808312C0A114B10461F0B701F4
:102AD0007560C6010296A5010E94BD240E94BB2319
:102AE000882349F406C0F601C081D1810E94BB232E
:102AF0001CC00E945A170E94AA2591FD14C00FB64F
:102B0000F8940F92F601808191819701282339234F
:102B10002E153F0531F42095309528233923318334
:102B200020830F900FBEEC01D0708C2F9D2FDF9172
:102B3000CF911F910F91FF90EF90DF90CF90BF90BA
:102B4000AF900895CF93DF93EC010E94DD228A813C
:102B5000882349F08F81988560E072E00E942125EA
:102B60008A818823B9F7CE010E94F9150E94BB2300
:102B7000DF91CF910895BA010E94C0140895BA015F
:102B80000E94AD140895CF93DF93EC010E94DD22E3
:102B900080912B0190912C01009731F48EE291E00D
:102BA00090932C0180932B012091150530911605EF
:102BB000CE01820F931F43E0873E940770F42817DD
:102BC000390770F4C0912B01D0912C01C20FD31F93
:102BD000909316058093150505C0C0E0D0E002C0B3
:102BE000C0E0D0E00E94BB238C2F9D2FDF91CF91BE
:102BF00008950895109216051092150508952091D4
:102C000015053091160587EE93E0821B930B08950E
:102C1000FC010396928381832FEF3FEF348323835C
:102C2000968385839087878310820895FC0111869F
:102C300010860895CF93DF93FB01DC011196CD91AF
:102C4000DC911297D383C2832C813D813583248309
:102C5000AC81BD8113967C936E9312977D836C83B8
:102C600091878087FC0120812F5F2083DF91CF91A6
:102C70000895CF93DF93AC01EB01288139818FEF69
:102C80002F3F380721F4FA01A781B0850DC0DA0182
:102C9000139601C0DF011296ED91FC91139780818C
:102CA000918128173907B0F71296ED91FC9113978F
:102CB000FB83EA83D583C483BD83AC831396DC9303
:102CC000CE93129759874887FA0180818F5F80835E
:102CD000DF91CF910895CF93DF93FC01C085D1851B
:102CE000A281B3818481958115969C938E931497CC
:102CF000A481B5818281938113969C938E931297C0
:102D0000A981BA81AE17BF0731F414968D919C91B9
:102D100015979A83898311861086888181508883CC
:102D20008881DF91CF91089521E1FC0120833197C3
:102D300032E23083FC013297A3E3A083FC01339796
:102D40006083FC0134977083FC0135971082FC018D
:102D5000369760E86083FC0137971082FC01389752
:102D600062E06083FC01399763E06083FC013A977D
:102D700064E06083FC013B9765E06083FC013C9765
:102D800066E06083FC013D9767E06083FC013E974D
:102D900068E06083FC013F9769E06083FC01709705
:102DA00060E16083FC0171972083FC01729722E14E
:102DB0002083FC01739723E12083FC01749724E1B5
:102DC0002083FC01759725E12083FC01769726E19D
:102DD0002083FC01779727E12083FC01789728E185
:102DE0002083FC01799729E12083FC017A9720E276
:102DF0002083FC017B9721E22083FC017C973083B8
:102E0000FC017D9723E22083FC017E974083FC0137
:102E10007F975083FC01B09726E22083FC01B19795
:102E200027E22083FC01B29728E22083FC01B397BC
:102E300029E22083FC01B49720E32083FC01B597AD
:102E400021E32083869708951BBC89EF8ABD8BE020
:102E50008EBD89B7806189BFA0911705B091180513
:102E6000CD91CDBFDD91DEBFFF91EF91DF91CF918D
:102E7000BF91AF919F918F917F916F915F914F9192
:102E80003F912F911F910F91FF90EF90DF90CF9086
:102E9000BF90AF909F908F907F906F905F904F907A
:102EA0003F902F901F900F900FBE0F90089581E0DC
:102EB000089508950F920FB6F8940F921F9211245F
:102EC0002F923F924F925F926F927F928F929F923A
:102ED000AF92BF92CF92DF92EF92FF920F931F9328
:102EE0002F933F934F935F936F937F938F939F9312
:102EF000AF93BF93CF93DF93EF93FF93A091170509
:102F0000B09118050DB60D920EB60D920E944F2489
:102F1000A0911705B0911805CD91CDBFDD91DEBF11
:102F2000FF91EF91DF91CF91BF91AF919F918F91E1
:102F30007F916F915F914F913F912F911F910F91D1
:102F4000FF90EF90DF90CF90BF90AF909F908F90C9
:102F50007F906F905F904F903F902F901F900F90B9
:102F60000FBE0F9008950F920FB6F8940F921F9214
:102F700011242F923F924F925F926F927F928F9285
:102F80009F92AF92BF92CF92DF92EF92FF920F93F8
:102F90001F932F933F934F935F936F937F938F93E1
:102FA0009F93AF93BF93CF93DF93EF93FF93A09142
:102FB0001705B09118050DB60D920EB60D920E9430
:102FC000FD22882311F00E944F24A0911705B09193
:102FD0001805CD91CDBFDD91DEBFFF91EF91DF915F
:102FE000CF91BF91AF919F918F917F916F915F91A1
:102FF0004F913F912F911F910F91FF90EF90DF9094
:10300000CF90BF90AF909F908F907F906F905F9088
:103010004F903F902F901F900F900FBE0F900895EC
:103020000E94B31718950FB6F8940F92FC01928D79
:103030000F900FBE81E0911180E00895FC01448D56
:103040004423C1F026813781240F311D3783268325
:10305000A481B5812A173B0720F020813181378375
:10306000268336812781862F972F632F722F50E07A
:103070000E94DF2A08950F931F93CF93DF93EC01F3
:10308000142F0A8D4C8D4423B9F11123B1F48A8198
:103090009B8150E00E94DF2A2C8D8A819B81820FC8
:1030A000911D9B838A832C813D818217930720F198
:1030B000888199819B838A831FC08E819F8150E084
:1030C0000E94DF2A4C8D50E0509541955F4F8E81D4
:1030D0009F81840F951F9F838E832881398182175A
:1030E000930730F48C819D81840F951F9F838E837D
:1030F000123011F4011101500F5F0A8F80E0DF914F
:10310000CF911F910F910895EF92FF920F931F930C
:10311000CF938C010FB6F8940F92FC01C68D1C164C
:10312000CCF48189882331F415C0F8018189882382
:1031300041F410C00F2EF1E1EF2EFF24F02DE00E30
:10314000F11EC7010E94D624882311F00E94A125F8
:10315000C15059F78FEFF801868F0F900FBE0FB651
:10316000F8940F92F801C58D1C16C4F4808588234D
:1031700031F414C0F8018085882339F40FC0EE249F
:10318000FF246894E3F8E00EF11EC7010E94D624E4
:10319000882311F00E94A125C15061F78FEFF8013B
:1031A000858F0F900FBECF911F910F91FF90EF90E1
:1031B0000895CF93DF93EC010FB6F8940F924881F6
:1031C00059812B8DEC8D30E0F0E02E9FC0012F9FB8
:1031D000900D3E9F900D1124840F951F9D838C832D
:1031E0001A8E5B834A83C90101978E9F90018F9F3E
:1031F000300D9E9F300D1124240F351F3F832E83E9
:103200008FEF8D8F8E8F662361F48885882389F0F8
:10321000CE0108960E94D624882359F00E945A179E
:1032200008C0CE0108960E940816CE0141960E9461
:1032300008160F900FBE81E0DF91CF9108950F9394
:103240001F93CF93DF93082F162F662321F0689FDB
:10325000C001112402C080E090E04F960E94C31587
:10326000EC01009771F0112319F49983888303C04E
:103270004F96998388830B8F1C8FCE0161E00E944B
:10328000D9188C2F9D2FDF91CF911F910F91089509
:103290008F929F92BF92CF92DF92EF92FF920F9305
:1032A0001F93CF93DF9300D000D00F92CDB7DEB73E
:1032B0008C014B015D834C83E22EFF24BB24B3942D
:1032C000CC24DD246894C3F8C80ED91E0FB6F89438
:1032D0000F92F801928D838D981718F0F2E0EF1697
:1032E000D1F4C801B4014E2D0E943B18F801918918
:1032F000992349F0C80141960E94D624882339F0C9
:103300000E945A1704C0882311F00E945A170F9088
:103310000FBE81E052C08C819D81009721F40F90F7
:103320000FBE80E04AC0FF2029F4CE0101960E9422
:103330006925FB2C0F900FBE0E94DD220FB6F8947A
:103340000F92F801858D8F3F09F4158EF801868D57
:103350008F3F09F4168E0F900FBECE010196BE016D
:103360006C5F7F4F0E947425882309F50FB6F8948F
:103370000F92F801928D0F900FBEF801838D981770
:1033800081F46C817D81C6010E94AB24C8010E943A
:1033900084180E94BB23882309F098CF0E945A17F3
:1033A00095CFC8010E9484180E94BB238FCFC8010B
:1033B0000E9484180E94BB2380E00F900F900F9012
:1033C0000F900F90DF91CF911F910F91FF90EF9091
:1033D000DF90CF90BF909F908F900895EF92FF92D3
:1033E0000F931F93CF938C017A01FC01928D838DF3
:1033F000981710F02230F1F4F801C68DC801422F61
:103400000E943B18CF3F89F4F80181898823A1F0FD
:10341000C80141960E94D624882381F0E114F1046A
:1034200079F081E0F70180830CC0CF5FF801C68F8F
:1034300081E007C080E005C081E003C081E001C0F9
:1034400081E0CF911F910F91FF90EF900895CF935E
:10345000DF93FC01EB01828D938D8917B8F4968D73
:103460008F5F828F9F3F71F48189882389F0CF011C
:1034700041960E94D624882369F0209769F081E064
:1034800088830BC09F5F968F81E007C080E005C0F6
:1034900081E003C081E001C081E0DF91CF91089518
:1034A0008F929F92AF92BF92DF92EF92FF920F9313
:1034B0001F93CF93DF9300D000D00F92CDB7DEB72C
:1034C0007C014B015D834C8300E0DD24D3940F2EFF
:1034D000F1E1AF2EBB24F02DA80EB91E0FB6F89463
:1034E0000F92F701128D1123B1F0C701B4010E94B0
:1034F0001E181150F701128F8085882341F0C701F3
:1035000008960E94D624882311F00E945A170F9023
:103510000FBE81E052C08C819D81009721F40F90F5
:103520000FBE80E04AC0002329F4CE0101960E941C
:1035300069250D2D0F900FBE0E94DD220FB6F89465
:103540000F92F701858D8F3F09F4158EF701868D57
:103550008F3F09F4168E0F900FBECE010196BE016B
:103560006C5F7F4F0E9474258823D9F4C7010E94A5
:103570001318882381F06C817D81C5010E94AB24E2
:10358000C7010E9484180E94BB23882309F0A6CF9C
:103590000E945A17A3CFC7010E9484180E94BB2320
:1035A0009DCFC7010E9484180E94BB23C7010E94BF
:1035B0001318882309F492CF80E00F900F900F909A
:1035C0000F900F90DF91CF911F910F91FF90EF908F
:1035D000DF90BF90AF909F908F900895CF92DF9231
:1035E000EF92FF920F931F93CF93DF9300D000D001
:1035F0000F92CDB7DEB78C017D836C83FF24EE2460
:10360000E3940F2EF1E1CF2EDD24F02DC80ED91E4C
:103610000FB6F8940F92F801828D882389F08150BB
:10362000828F8085882341F0C80108960E94D624A5
:10363000882311F00E945A170F900FBE81E052C0EC
:103640008C819D81009721F40F900FBE80E04AC0CD
:10365000FF2029F4CE0101960E946925FE2C0F90CF
:103660000FBE0E94DD220FB6F8940F92F801858DEF
:103670008F3F09F4158EF801868D8F3F09F4168E61
:103680000F900FBECE010196BE016C5F7F4F0E946E
:1036900074258823D9F4C8010E941318882381F067
:1036A0006C817D81C6010E94AB24C8010E948418F0
:1036B0000E94BB23882309F0ABCF0E945A17A8CFE2
:1036C000C8010E9484180E94BB23A2CFC8010E9497
:1036D00084180E94BB23C8010E941318882309F490
:1036E00097CF80E00F900F900F900F900F90DF9189
:1036F000CF911F910F91FF90EF90DF90CF900895A1
:10370000AF92BF92CF92DF92EF92FF920F931F93EF
:10371000CF93DF9300D000D00F92CDB7DEB78C01EE
:103720005B015D834C83FF24EE24E3940F2EF1E1D3
:10373000CF2EDD24F02DC80ED91E0FB6F8940F92AF
:10374000F801828D8823C1F0E680F780C801B501B9
:103750000E941E18F801F782E6828189882341F0D1
:10376000C80141960E94D624882311F00E945A175E
:103770000F900FBE81E052C08C819D81009721F493
:103780000F900FBE80E04AC0FF2029F4CE010196C1
:103790000E946925FE2C0F900FBE0E94DD220FB6FD
:1037A000F8940F92F801858D8F3F09F4158EF8017A
:1037B000868D8F3F09F4168E0F900FBECE010196B5
:1037C000BE016C5F7F4F0E9474258823D9F4C80125
:1037D0000E941318882381F06C817D81C6010E94AC
:1037E000AB24C8010E9484180E94BB23882309F0DF
:1037F000A4CF0E945A17A1CFC8010E9484180E942A
:10380000BB239BCFC8010E9484180E94BB23C80120
:103810000E941318882309F490CF80E00F900F9036
:103820000F900F900F90DF91CF911F910F91FF900C
:10383000EF90DF90CF90BF90AF900895EF92FF92FE
:103840000F931F93CF93DF938C017A01FC01C28DFC
:10385000CC23E9F0D58D0E941E18C150F801C28F0B
:10386000DF3F81F480858823A1F0C80108960E947B
:10387000D624882381F0E114F10479F081E0F70186
:1038800080830CC0DF5FF801D58F81E007C080E046
:1038900005C081E003C081E001C081E0DF91CF91EC
:1038A0001F910F91FF90EF9008950F931F93CF9367
:1038B000DF93EC018A8D882349F00E811F81CE01B0
:1038C0000E941E181F830E8381E001C080E0DF91FB
:1038D000CF911F910F9108950FB6F8940F92FC01AC
:1038E000828D0F900FBE0895FC010FB6F8940F92D1
:1038F000928D0F900FBE838D891B0895FC01828DE0
:1039000008950E94F9150895FC01928D81E09111AE
:1039100080E00895FC01228D81E0938D291380E0E1
:103920000895FC012481358182819381820F931F48
:1039300040815181841B950B8217930710F0821BE5
:10394000930B0895AF92BF92CF92DF92EF92FF92C6
:103950000F931F93CF93DF938C016B01C22FD32F53
:103960004C175D0708F4EA01209799F1F801A0804F
:10397000B180848195818A199B097E018C179D07EE
:1039800008F47C01F801648575856A0D7B1D8C2D1A
:103990009D2D4E2D5F2D0E94DF2AEC16FD0658F45A
:1039A000C6018E0D9F1DAE014E195F09F801648599
:1039B00075850E94DF2ACE018A0D9B1DF8012481A6
:1039C00035818217930710F0821B930BF8019183C6
:1039D00080838C2F9D2FDF91CF911F910F91FF90AE
:1039E000EF90DF90CF90BF90AF9008956F927F924D
:1039F0008F929F92AF92BF92CF92DF92EF92FF92FF
:103A00000F931F93CF93DF9300D0CDB7DEB75C0148
:103A10004B017A01690101151105A9F0FC016080D3
:103A20007180BE016F5F7F4FA8010E94A21C498177
:103A30005A81C01AD10AE416F50628F4F5017182FC
:103A4000608240E050E0C501B40196010E94A21CD2
:103A50000F900F90DF91CF911F910F91FF90EF90FA
:103A6000DF90CF90BF90AF909F908F907F906F909E
:103A70000895AF92BF92CF92DF92EF92FF920F9391
:103A80001F93CF93DF93EC015B018A01CA80DB8037
:103A90008C819D818C199D097A018417950708F402
:103AA0007C018C859D858C0D9D1D6A2D7B2D4E2D59
:103AB0005F2D0E94DF2AE016F10650F4A8014E198E
:103AC0005F09B5016E0D7F1D8C859D850E94DF2AE3
:103AD000C8018C0D9D1D2C813D818217930710F02C
:103AE000821B930B9B838A83802F912FDF91CF9131
:103AF0001F910F91FF90EF90DF90CF90BF90AF900C
:103B00000895CF92DF92EF92FF920F931F93CF937E
:103B1000DF9300D0CDB7DEB77C016B015A834983B8
:103B200021153105B9F0FC01868580FD07C04217DB
:103B3000530708F49A013A8329831CC020173107E0
:103B400060F0C701BE016F5F7F4F42E050E00E940E
:103B5000391D10C080E090E002C080E090E00F903E
:103B60000F90DF91CF911F910F91FF90EF90DF9019
:103B7000CF90089549815A81C701B6010E94391D2D
:103B8000EECF0F93FC018FE0DF011D928A95E9F7DC
:103B900075876487558344833783268306870F910F
:103BA0000895DF92EF92FF920F931F93CF93DF93CD
:103BB0008C017B01D42E6115710519F4EE24FF24CC
:103BC000E394C80140960E94C315EC01009769F088
:103BD000BC01615F7F4FA8014F5F5F4F01E0D012D2
:103BE00000E0CE0197010E94C11D8C2F9D2FDF9117
:103BF000CF911F910F91FF90EF90DF900895FC01FE
:103C0000268521FD03C00E94F91508952FE0FC01CF
:103C100011922A95E9F708950F93FC010FB6F894D5
:103C20000F9280859185009781F482859385009716
:103C300071F4648575854481558126813781CF0172
:103C400006850E94C11D81E003C080E001C080E0C4
:103C50000F900FBE0F910895FC016115710511F4CD
:103C600061E070E0848195818617970720F0778363
:103C7000668381E0089580E00895FC012481358108
:103C80004081518162817381C901840F951F019721
:103C9000861B970B8217930710F0821B930B0895D6
:103CA0000E94911C08954F925F926F927F928F9223
:103CB0009F92AF92BF92CF92DF92EF92FF920F93BB
:103CC0001F93CF93DF9300D000D00F92CDB7DEB714
:103CD0006C012B013A013D832C83FC01868580FF1A
:103CE00007C088249924689481F8840E951E01C029
:103CF0004A018C819D810097B9F1CE0101960E9405
:103D000059250FB6F8940F92C6010E943D1E5C0122
:103D10008815990528F580E090E00E9400280E940F
:103D2000A525F601938782870F900FBEEC80FD805A
:103D300060E070E0CB0120E030E0A90100E010E09D
:103D40000E941D26F60113861286CE010196BE0141
:103D50006C5F7F4F0E947425882399F2C50102C0D1
:103D60000F900FBE009721F4C6010E943D1E5C011A
:103D7000C601B201A301950184010E94811D7C014D
:103D80000097F9F0C6010E94911CF6012681378147
:103D900082179307B0F00E94DD22F601808591859D
:103DA000009769F08085918540E050E0BA0120E0FD
:103DB00000E010E00E949926F601118610860E940C
:103DC000BB238E2D9F2D0F900F900F900F900F9073
:103DD000DF91CF911F910F91FF90EF90DF90CF90E7
:103DE000BF90AF909F908F907F906F905F904F901B
:103DF0000895AF92BF92CF92DF92EF92FF920F930E
:103E00001F93CF93DF93EC016B017A0159018E85EB
:103E100080FF04C08A010E5F1F4F01C08A01CE01DE
:103E20000E943D1E9C01CE01B601A7010E94811D8A
:103E30006C010097C9F0CE010E94911C2E813F8138
:103E40008217930788F088859985009769F088859F
:103E5000998540E050E0BA0120E000E010E07501F3
:103E60000E941627198618868C2D9D2DDF91CF91E3
:103E70001F910F91FF90EF90DF90CF90BF90AF9088
:103E800008956F927F928F929F92AF92BF92CF923E
:103E9000DF92EF92FF920F931F93CF93DF935C011A
:103EA0004B013A017901FC01868580FF05C0CC24D5
:103EB000DD246894C1F802C0CC24DD24E114F104AF
:103EC00051F10FB6F8940F92C5010E94911CEC01BC
:103ED000C816D90648F080E090E00E9400280E94B1
:103EE000A525F501918780870F900FBECC16DD06C2
:103EF000C8F060E070E0CB0120E030E0A90100E014
:103F000010E00E941D26F50111861086C5010E9451
:103F1000911CEC0104C0C5010E94911CEC01CC165F
:103F2000DD0608F5C501B401A3019E0186010E94CA
:103F3000F61CEC010097C9F00E94DD22F501828594
:103F40009385009769F08285938540E050E0BA013F
:103F500020E000E010E00E949926F5011386128609
:103F60000E94BB2302C0C0E0D0E08C2F9D2FDF91C8
:103F7000CF911F910F91FF90EF90DF90CF90BF9066
:103F8000AF909F908F907F906F900895EF92FF92E7
:103F90000F931F93CF93DF9300D0CDB7DEB78C0183
:103FA000FC01868580FF18C0C8010E94911C9C01FD
:103FB00083309105A0F0F801E080F180C801BE01D6
:103FC0006F5F7F4F42E050E00E94A21C89819A817E
:103FD000F801F182E08205C080E090E002C080E05C
:103FE00090E00F900F90DF91CF911F910F91FF9074
:103FF000EF900895AF92BF92CF92DF92EF92FF922F
:104000000F931F93CF93DF936C01EB017A0159015A
:10401000FC01868580FF03C002E010E002C000E0E2
:1040200010E0C6010E94911C9C0108171907E0F4DA
:10403000C601BE01A7010E94F61CEC010097B1F079
:10404000F60182859385009789F08285938540E00B
:1040500050E0BA0120E000E010E075010E94162750
:10406000F6011386128602C0C0E0D0E08C2F9D2F8F
:10407000DF91CF911F910F91FF90EF90DF90CF9044
:10408000BF90AF900895FC0140815181228133811E
:1040900081E04217530709F080E00895CF93DF9342
:1040A000FC01268520FF03C0C2E0D0E002C0C0E0D2
:1040B000D0E00E943D1E21E0C817D90708F420E097
:1040C000822FDF91CF910895EF92FF920F931F936C
:1040D000CF93DF93EC017B0188859985009771F080
:1040E0008885998540E050E0BA0120E000E010E0CA
:1040F0000E9416271986188681E001C080E0DF91B2
:10410000CF911F910F91FF90EF900895EF92FF9242
:104110000F931F93CF93DF93EC017B018A859B85DF
:10412000009771F08A859B8540E050E0BA0120E05D
:1041300000E010E00E9416271B861A8681E001C06D
:1041400080E0DF91CF911F910F91FF90EF90089544
:10415000E0912705F09128058081882339F48FEFBD
:104160009FEF90931B0580931A050895E091270512
:10417000F09128050580F681E02D0680F781E02D7D
:104180008281938190931B0580931A0508950F9364
:104190001F93CF93DF93EC0100912105109122052D
:1041A000809117059091180502960E946B16C00F1A
:1041B000D11FE0911705F0911805D383C283C01772
:1041C000D10768F480912505909126056091170527
:1041D000709118056E5F7F4F0E94391617C080914D
:1041E00027059091280560911705709118056E5F5D
:1041F0007F4F0E94391680911A0590911B05C817B0
:10420000D90720F4D0931B05C0931A05DF91CF91F5
:104210001F910F910895CF93DF93EC018F89988DB3
:104220000E94F915CE010E94F915DF91CF910895F2
:104230001CC00FB6F8940F92E0916E05F0916F05D7
:10424000C681D781CE0102960E946B16809123050C
:10425000815080932305809124058150809324050B
:104260000F900FBECE010E940B2180912405882360
:1042700001F7FBCF2F923F924F925F926F927F9206
:104280008F929F92AF92BF92DF92EF92FF920F9325
:104290001F93CF93DF933C015B01EA012901D02EEC
:1042A0004701CA010E94C3157C01009709F4ECC0C4
:1042B00086E290E00E94C3158C01009759F0FC0142
:1042C000F08EE78A219717012C0E3D1EA114B10430
:1042D00031F41EC0C7010E94F9158FEFDAC0F50155
:1042E0008081F801818FF5018081882371F0E801D8
:1042F0006A96D501119681E0FD019D919993908177
:10430000992319F08F5F8830B9F7F80110A202C025
:10431000FC01118ECD2DC43008F0C3E0F801C68B2E
:10432000EE24FF246894E1F8E00EF11EC7010E941C
:104330001616C8010C960E941616F8011187008700
:1043400084E090E08C1B910995878487138B028B06
:1043500011A212A213A214A215A2C101B301A201BB
:104360000E949416F801918380838114910419F0BE
:10437000F401118300830FB6F8940F928091230506
:104380008F5F809323058091170590911805009702
:10439000D9F51093180500931705809123058130F6
:1043A00009F043C0C0E0D0E0CE01880F991F880F0C
:1043B000991F880F991F8C0F9D1F865D9A4F0E9431
:1043C00008162196C430D10579F7CEE4D5E0CE01A8
:1043D0000E9408160F2EF7E5AF2EF5E0BF2EF02D48
:1043E000C5010E94081680E695E00E94081689E63D
:1043F00095E00E940816D0932805C0932705B09237
:104400002605A092250511C080911F05882369F417
:10441000E0911705F09118059689F80186898917AA
:1044200020F01093180500931705809129058F5FE0
:1044300080932905F801868990912005981710F43A
:104440008093200590E09C01220F331F220F331F21
:10445000220F331F820F931F865D9A4FB7010E9470
:104460001A160F900FBE80911F05882379F0E091F6
:104470001705F09118059689F8018689981740F478
:104480000E945A1781E005C08FEF03C081E001C090
:1044900081E0DF91CF911F910F91FF90EF90DF901E
:1044A000BF90AF909F908F907F906F905F904F9054
:1044B0003F902F9008950F931F93CF93DF930FB6E4
:1044C000F8940F92009729F4C0911705D091180520
:1044D00001C0EC018E010E5F1F4FC8010E946B16D8
:1044E0008C899D89009721F0CE010C960E946B1655
:1044F000809129058F5F8093290580911705909100
:104500001805C817D90759F489E695E0B8010E9443
:104510001A16809124058F5F809324050AC080912C
:104520002305815080932305CE010E940B210E9418
:10453000A8200F900FBE80911F05882349F080911D
:10454000170590911805C817D90711F40E945A173A
:10455000DF91CF911F910F910895EF92FF920F93EA
:1045600088E191E266EE70E045E550E020E030E061
:1045700000E00F2EF2E7EF2EF5E0FF2EF02D0E9467
:104580003A21813081F4F8948FEF9FEF90931B05CF
:1045900080931A0581E080931F05109222051092E6
:1045A00021050E9424170F91FF90EF900895F89431
:1045B00010921F050E9459170895809119058F5F69
:1045C0008093190508950FB6F8940F9280912105F4
:1045D000909122050F900FBE089580912105909132
:1045E00022050895809123050895009721F4809174
:1045F00017059091180549960895CF92DF92EF9292
:10460000FF920F931F93CF93DF9380911905882317
:1046100009F098C0C0902105D09022050894C11CD3
:10462000D11CD0922205C0922105C114D104B9F445
:104630008091270590912805209125053091260528
:104640003093280520932705909326058093250510
:1046500080911C058F5F80931C050E94A82080918B
:104660001A0590911B05C816D90620F4FF2454C0E2
:10467000FE2C03C0FF24EE24E394E0912705F09183
:1046800028058081882339F48FEF9FEF90931B05D5
:1046900080931A0541C0E0912705F0912805058017
:1046A000F681E02DC681D7818A819B81C816D90603
:1046B00028F490931B0580931A052EC08E010E5F7F
:1046C0001F4FC8010E946B168C899D89009721F0AD
:1046D000CE010C960E946B168E899091200598173A
:1046E00010F48093200590E09C01220F331F220FCD
:1046F000331F220F331F820F931F865D9A4FB8011D
:104700000E941A16E0911705F09118059E89868976
:10471000981708F0ADCFB1CFE0911705F0911805CB
:10472000868990E0FC01EE0FFF1FEE0FFF1FEE0FDA
:10473000FF1F8E0F9F1FFC01E65DFA4F80818230C4
:1047400040F409C080911E058F5F80931E05FF24F1
:1047500002C0FF24F39480911D05882311F0FF24EB
:10476000F3948F2DDF91CF911F910F91FF90EF90D8
:10477000DF90CF900895DF92EF92FF920F931F93F7
:10478000CF93DF930FB6F8940F9280911905815063
:104790008093190580911905882309F05FC08091E5
:1047A0002305882391F55DC0E0916505F0916605CC
:1047B000C681D781CE010C960E946B168E010E5FCA
:1047C0001F4FC8010E946B168E8990912005981783
:1047D00010F48093200590E09C01220F331F220FDC
:1047E000331F220F331F820F931F865D9A4FB8012C
:1047F0000E941A16E0911705F09118059E89868986
:10480000981768F0D0921D050AC0C0E0D0E00F2EC6
:10481000F0E6EF2EF5E0FF2EF02DDD24D394F70126
:104820008081882309F6209711F00E94A820C0916A
:104830001E05CC2359F001E00E94FD22882311F0CF
:1048400000931D05C150C1F710921E0580911D05F2
:10485000882331F00E945A1781E003C080E001C034
:1048600080E00F900FBEDF91CF911F910F91FF90CD
:10487000EF90DF900895CF93DF93EC01009751F014
:104880000E94DD22CE0160E00E94C7200E94BB236F
:10489000882311F40E945A17DF91CF9108958091D7
:1048A0001905882321F081E080931D050895109259
:1048B0001D0520912005822F90E0FC01EE0FFF1FC7
:1048C000EE0FFF1FEE0FFF1FE80FF91FE65DFA4F17
:1048D0003081332389F42150822F90E0FC01EE0FC8
:1048E000FF1FEE0FFF1FEE0FFF1FE80FF91FE65D22
:1048F000FA4F3081332379F3DC01AA0FBB1FAA0FD3
:10490000BB1FAA0FBB1F8A0F9B1FDC01A65DBA4FFE
:104910001196ED91FC9112970280F381E02D129691
:10492000FC93EE931197CD010396E817F90731F444
:104930008281938112969C938E9311971196ED919B
:10494000FC911297868197819093180580931705A3
:10495000209320050895CF93DF93EB016091170515
:1049600070911805645F7F4F0E943916CE0161E097
:104970000E94C720DF91CF910895CF93DF93EA0182
:10498000E0911705F091180570687587648760914C
:10499000170570911805645F7F4F0E941A16CE01AB
:1049A00061E00E94C720DF91CF9108950F931F937C
:1049B000CF93DF93DC011596ED91FC91169706815C
:1049C0001781E8012C96CE010E946B168091190583
:1049D0008823E9F4E8012296CE010E946B16F801C3
:1049E000868990912005981710F48093200590E017
:1049F0009C01220F331F220F331F220F331F820F00
:104A0000931F865D9A4FBE010E941A1605C080E66C
:104A100095E0BE010E941A16E0911705F091180565
:104A2000D80156969C9156978689891720F481E083
:104A300080931D0501C080E0DF91CF911F910F9100
:104A400008950F931F93CF93DF937068FC017183D8
:104A50006083C681D7810E946B168E010E5F1F4F47
:104A6000C8010E946B168E8990912005981710F44A
:104A70008093200590E09C01220F331F220F331FEB
:104A8000220F331F820F931F865D9A4FB8010E9439
:104A90001A16E0911705F09118059E8986898917E5
:104AA00018F481E080931D05DF91CF911F910F9144
:104AB0000895FC010FB6F8940F9280911C05808335
:104AC0008091210590912205928381830F900FBEE2
:104AD0000895FC0180911C058083809121059091AF
:104AE0002205928381830895FC01DB010FB6F894BF
:104AF0000F92209121053091220581819281409170
:104B00001C055081541719F028173907B0F4281BD9
:104B1000390B8D919C9111972817390748F4821B06
:104B2000930B8D939C93CF010E94692580E006C072
:104B300011961C921E9281E001C081E00F900FBE81
:104B4000089581E080931D05089580911705909147
:104B500018050895E0911705F0911805848595854D
:104B6000E0911705F0911805A0911705B09118056F
:104B700056964C91569724E030E0241B3109358736
:104B8000248708950F931F93CF93C82F0FB6F894DF
:104B90000F92E0911705F091180581A192A1A3A1B0
:104BA000B4A10097A105B10579F4E0911705F09142
:104BB000180581E085A36115710531F0CB0161E035
:104BC0000E94C7200E945A170F900FBE0FB6F8948C
:104BD0000F92E0911705F091180501A112A123A1F0
:104BE00034A10115110521053105C1F0CC2349F08F
:104BF000E0911705F091180511A212A213A214A2B8
:104C00000DC0E0911705F0911805D901C801019771
:104C1000A109B10981A392A3A3A3B4A3E0911705AD
:104C2000F091180515A20F900FBE602F712F822FE3
:104C3000932FCF911F910F9108958F929F92AF92D2
:104C4000BF92EF92FF920F931F93DC01CB014901BA
:104C50005A010FB6F8940F92E0911705F0911805DC
:104C600025A1223019F1E0911705F091180541A115
:104C700052A163A174A180959095A095B0958423CD
:104C80009523A623B72381A392A3A3A3B4A3E09162
:104C90001705F091180581E085A3E114F10431F0C6
:104CA000C70161E00E94C7200E945A170F900FBEF3
:104CB0000FB6F8940F920115110569F0E0911705F0
:104CC000F091180581A192A1A3A1B4A1F80180835C
:104CD0009183A283B383E0911705F091180585A114
:104CE0008230B1F4E0911705F091180581A192A1ED
:104CF000A3A1B4A180949094A094B0948822992206
:104D0000AA22BB2281A292A2A3A2B4A281E001C0E6
:104D100080E0E0911705F091180515A20F900FBEE5
:104D20001F910F91FF90EF90BF90AF909F908F9049
:104D300008950F931F93CF93DF93EC010FB6F89470
:104D40000F920115110549F089A19AA1ABA1BCA14F
:104D5000F80180839183A283B3833DA182E08DA378
:104D60002230B9F0233018F4213051F505C023303A
:104D7000E1F0243029F51EC089A19AA1ABA1BCA104
:104D8000482B592B6A2B7B2B49A35AA36BA37CA3DB
:104D900017C089A19AA1ABA1BCA10196A11DB11D0B
:104DA00089A39AA3ABA3BCA30BC049A35AA36BA32B
:104DB0007CA306C0323071F149A35AA36BA37CA334
:104DC000313051F58E010E5F1F4FC8010E946B16E6
:104DD0008E8990912005981710F48093200590E01B
:104DE0009C01220F331F220F331F220F331F820F0C
:104DF000931F865D9A4FB8010E941A16E09117051D
:104E0000F09118059E898689891740F40E945A17E7
:104E100081E005C080E003C081E001C081E00F9027
:104E20000FBEDF91CF911F910F910895EF92FF92E6
:104E30000F931F93CF93DF93EC010115110549F0F8
:104E400089A19AA1ABA1BCA1F80180839183A2831F
:104E5000B3833DA182E08DA32230B9F0233018F452
:104E6000213059F505C02330E1F0243031F51EC062
:104E700089A19AA1ABA1BCA1842B952BA62BB72B02
:104E800089A39AA3ABA3BCA318C089A19AA1ABA183
:104E9000BCA10196A11DB11D89A39AA3ABA3BCA37C
:104EA0000CC049A35AA36BA37CA307C0323009F4FA
:104EB00040C049A35AA36BA37CA33130E1F5809194
:104EC00019058823E9F48E010E5F1F4FC8010E9467
:104ED0006B168E8990912005981710F48093200509
:104EE00090E09C01220F331F220F331F220F331F2C
:104EF000820F931F865D9A4FB8010E941A1607C051
:104F0000BE01645F7F4F80E695E00E941A16E09133
:104F10001705F09118059E898689891770F4E114A8
:104F2000F10419F081E0F701808381E080931D0591
:104F300005C080E003C081E001C081E0DF91CF9136
:104F40001F910F91FF90EF900895EF92FF920F93B2
:104F50001F93CF93DF93EC018B012DA182E08DA3F2
:104F600089A19AA1ABA1BCA10196A11DB11D89A3E4
:104F70009AA3ABA3BCA32130E1F580911905882346
:104F800001F5EE24FF246894E1F8EC0EFD1EC70144
:104F90000E946B168E8990912005981710F48093CB
:104FA000200590E09C01220F331F220F331F220F98
:104FB000331F820F931F865D9A4FB7010E941A1606
:104FC00007C0BE01645F7F4F80E695E00E941A161D
:104FD000E0911705F09118059E898689891748F494
:104FE0000115110519F081E0F801808381E08093BB
:104FF0001D05DF91CF911F910F91FF90EF900895C4
:10500000009729F4E0911705F091180501C0FC0103
:105010000FB6F8940F9285A1823019F415A281E0A1
:1050200001C080E00F900FBE08950F931F93CF93A0
:10503000DF93EC010981809176058F5F809376057F
:10504000209711F010E001C01AE2002319F002309D
:1050500079F407C00E943A078AED90E00E94A20FFF
:1050600008C00E943A0780EE90E00E94A20F01C0A3
:105070001F5F8881813099F4002319F0023069F4B0
:1050800006C080E06AEF70E00E94941009C082E0E0
:105090006EE070E00E94941003C01F5F01C01F5FAC
:1050A000812FDF91CF911F910F9108958091760507
:1050B000813041F484ED90E00E94A20F10927605B9
:1050C00080E00895823010F086E0089581E0089530
:1050D00050917605513099F4E42FF0E0EE0FFF1F68
:1050E000EE0FFF1FEE0FFF1FE154FA4F91838083F5
:1050F00065833483238381E0828380E00895523086
:1051000010F086E0089584E00895CF93DF938091B6
:105110007405813009F065C0109274051092750510
:1051200020E0CFEBD5E030E0F901EE0FFF1FEE0FEE
:10513000FF1FEE0FFF1FEC0FFD1F8281882309F474
:1051400048C0F901EE0FFF1FEE0FFF1FEE0FFF1F0C
:10515000EC0FFD1F86819781AC014F5F5F4F578336
:1051600046838381948148175907D1F4F901EE0FE2
:10517000FF1FEE0FFF1FEE0FFF1FEC0FFD1F019033
:10518000F081E02D0995E0917505F0E0EE0FFF1F2D
:10519000EE0FFF1FEE0FFF1FEC0FFD1F1782168291
:1051A0008091750590E0FC01EE0FFF1FEE0FFF1FD1
:1051B000EE0FFF1FEC0FFD1F2581222351F4FC0190
:1051C000EE0FFF1FEE0FFF1FEE0FFF1FEC0FFD1F77
:1051D0001282209175052F5F20937505273008F402
:1051E000A2CF80E0DF91CF910895E82FF0E0EE0F9D
:1051F000FF1FEE0FFF1FEE0FFF1FE154FA4F128249
:10520000089581E08093740508950CD0E6C0DED047
:1052100040F0D5D030F021F45F3F19F0C7C05111F4
:1052200010C1CAC0EBD098F39923C9F35523B1F349
:10523000951B550BBB27AA2762177307840738F005
:105240009F5F5F4F220F331F441FAA1FA9F333D064
:105250000E2E3AF0E0E830D091505040E695001C18
:10526000CAF729D0FE2F27D0660F771F881FBB1FD4
:10527000261737074807AB07B0E809F0BB0B802DAE
:10528000BF01FF2793585F4F2AF09E3F510568F0FA
:105290008DC0D7C05F3FECF3983EDCF386957795E1
:1052A0006795B795F7959F5FC9F7880F911D9695FC
:1052B000879597F90895E1E0660F771F881FBB1F58
:1052C000621773078407BA0720F0621B730B840B05
:1052D000BA0BEE1F88F7E095089598D088F09F5795
:1052E00090F0B92F9927B751A0F0D1F0660F771F32
:1052F000881F991F1AF0BA95C9F712C0B13081F012
:105300009FD0B1E008959CC0672F782F8827B85FA1
:1053100039F0B93FCCF3869577956795B395D9F772
:105320003EF490958095709561957F4F8F4F9F4F7C
:105330000895E89409C097FB3EF490958095709588
:1053400061957F4F8F4F9F4F9923A9F0F92F96E9D1
:10535000BB279395F695879577956795B795F11146
:10536000F8CFFAF4BB0F11F460FF1BC06F5F7F4FE3
:105370008F4F9F4F16C0882311F096E911C07723F5
:1053800021F09EE8872F762F05C0662371F096E8FE
:10539000862F70E060E02AF09A95660F771F881FCD
:1053A000DAF7880F9695879597F9089597F99F678B
:1053B00080E870E060E008959FEF80EC089500249D
:1053C0000A941616170618060906089500240A946A
:1053D00012161306140605060895092E0394000CF0
:1053E00011F4882352F0BB0F40F4BF2B11F460FF7F
:1053F00004C06F5F7F4F8F4F9F4F089557FD9058A8
:10540000440F551F59F05F3F71F04795880F97FB88
:10541000991F61F09F3F79F0879508951216130642
:105420001406551FF2CF4695F1DF08C01616170671
:105430001806991FF1CF86957105610508940895A6
:10544000E894BB2766277727CB0197F908950BD0FF
:10545000C4CFB5DF28F0BADF18F0952309F0A6CF46
:10546000ABCF1124EECFCADFA0F3959FD1F3950FF8
:1054700050E0551F629FF001729FBB27F00DB11DD8
:10548000639FAA27F00DB11DAA1F649F6627B00D68
:10549000A11D661F829F2227B00DA11D621F739F51
:1054A000B00DA11D621F839FA00D611D221F749F5F
:1054B0003327A00D611D231F849F600D211D822FA6
:1054C000762F6A2F11249F5750408AF0E1F08823ED
:1054D0004AF0EE0FFF1FBB1F661F771F881F9150FA
:1054E0005040A9F79E3F510570F060CFAACF5F3FB3
:1054F000ECF3983EDCF3869577956795B795F7952D
:10550000E7959F5FC1F7FE2B880F911D96958795B4
:1055100097F90895629FD001739FF001829FE00D7B
:10552000F11D649FE00DF11D929FF00D839FF00D22
:10553000749FF00D659FF00D9927729FB00DE11DCE
:10554000F91F639FB00DE11DF91FBD01CF011124AB
:105550000895AA1BBB1B51E107C0AA1FBB1FA617BA
:10556000B70710F0A61BB70B881F991F5A95A9F70C
:1055700080959095BC01CD010895A1E21A2EAA1B39
:10558000BB1BFD010DC0AA1FBB1FEE1FFF1FA217F3
:10559000B307E407F50720F0A21BB30BE40BF50BF0
:1055A000661F771F881F991F1A9469F76095709579
:1055B000809590959B01AC01BD01CF010895FB0141
:1055C000DC0102C001900D9241505040D8F708957F
:0455D000F894FFCF7D
:1055D40001F0FF0380FF010600030C000A00140021
:1055E4001E0003FCFF03E0FF031CFF0210FF012960
:1055F400280B130B040BEF0ADA0AC50AB00A9B0A3C
:1056040007034000000603400000050340000004B7
:1056140003400000030340000002034000000103B4
:10562400400000000340000001400001B0FF031CE3
:10563400FF02100001FFFF00FFFF02000306000647
:105644000206010600000100000000000104000041
:0E56540002000107000049444C45000100001F
:04000005008005F77B
:00000001FF
